:1001F3001207051206D47519057B0A7DFF7FAE121F
:10020300063B854E0DE50DC4540F2421F8E6F51386
:10021300E50D540F2421F8E6F514751576AE54AFA9
:10022300557C037DE812019E74212FF8E6F50EAE8E
:1002330054AF557C007D6412019E7C007D0A12013F
:100243009E74212DF8E6F50FAE54AF557C007D0A60
:1002530012019E7C007D0A12019E74212DF8E6F5A1
:1002630010AE54AF557C007D0A12019E74212DF807
:10027300E6F511E4F512FB7A00790E7D0112028591
:02028300808079
:05053F00C100013D00B8
:1006570043878075985053890F438920758BFA75A6
:0B0667008DFAC2ABD2ACD2AFD28E2213
:1005C7008B508A518952AB50AA51A95212015860D7
:1005D700160552E5527002055114F9120158F599A2
:0805E7003099FDC29980DF226A
:0906FC00C2007B007A00793E2265
:030023000204C410
:0904C400C0E0C0D075D000C000FA
:1004CD0020002C309829C298743E253DF8A699E558
:1004DD003EB42318E53DC394085011743E253DF8F4
:0F04ED00E6B42404D2008004053D8003753D0071
:0704FC00D000D0D0D0E032A7
:10061700D2A07F017E0012000ED2A17F017E0012C0
:10062700000EC2A07F017E0012000EC2A17F017ED4
:040637000002000EAF
:10067200C2A07F017E0012000ED2A17F017E001275
:0B068200000ED2A07F017E0002000EDF
:020503008F5611
:10050500C2A1E4F557E556C4131313540124FF9211
:10051500A0E55625E0F5567F017E0012000ED2A11A
:100525007F017E0012000EC2A17F017E0012000E27
:090535000557E557C3940840CCBA
:01053E00229A
:1005EF00D2A0E4F558D2A17F017E0012000EE5598A
:1005FF0025E0F559A2A0E4334259C2A10558E558A8
:07060F00C3940840E0AF595D
:0106160022C1
:1006A600C2A1C2A07F017E0012000ED2A17F017EF0
:0706B6000012000EC2A12298
:1006BD00C2A1D2A07F017E0012000ED2A17F017EC9
:0706CD000012000EC2A12281
:1006E900D2A0D2A17F017E0012000EA2A0E433FFA6
:0206F900C2A19C
:0106FB0022DC
:070544000254000001530006
:1006D4005389F0438901E4F58A758CDCC28DD28C90
:0506E400D2A9D2AF22F3
:10048300E4FBFAC2B6C2B5FDEFC41313135401243F
:10049300FF92B4EF25E0FFC2B6D2B60DBD08E9D294
:1004A300B6C2B6E4FDEB25E0FBEA33FAD2B6C2B638
:1004B300A2B7E43342030DBD0CEBD2B5AE02AF03DA
:0104C3002216
:03000B00020441AB
:10044100C0E0C0F0C0D075D000C002C003C005C07C
:0304510006C007DB
:10045400758A00758CDC0553E55375F0328485F09C
:0E04640053E55370097FA41204838E548F5504
:10047200D007D006D005D003D002D0D0D0F0D0E043
:010482003247
:0803F8008F468B478A488949B2
:100400001206177FA01205031206E9AF4612050374
:100410001206E9E4F54BE54BC3954A501AAB47AADF
:1004200048A949854B82758300120171FF120503AB
:100430001206E9054B80DF1206727F057E00020678
:010440008D2E
:0403A3008F328D33D5
:1003A7001206177FA01205031206E9AF32120503E2
:1003B7001206E91206177FA11205031206E9E4F5F2
:1003C70034E534C39533501C1205EF74352534F8E2
:1003D700A6070000E53314653460051206A6000081
:1003E700053480DD1206BD1206727B007A0079356E
:0103F70022E3
:02056E008F5AA2
:100570001206177FA01205031206E9AF5A120503EF
:100580001206E91206177FA11205031206E91205E9
:0B059000EF8F5B1206BD120672AF5B1E
:01059B00223D
:0A068D00EF1FAC0670011E4C600E5A
:0C069700755C02755DC7D55DFDD55CFA91
:0306A30080E822CA
:0B000E00EF1FAC0670011E4C70F622C4
:09070500D288D2A8D2AFD2B222F0
:03000300020026D2
:10002600C0E0C0F0C083C082C0D075D000C000C0A0
:0D00360001C002C003C004C005C006C00721
:10004300750C0030B20302013D7508037509E82001
:10005300B21EE509450860187F017E0012000EE517
:1000630009150970021508E509450870E202013D0A
:1000730030B22775080275092630B21EE509450816
:1000830060187F017E0012000EE509150970021544
:1000930008E509450870E202013D750A00750B0089
:1000A300744C250AF8C000E6C313D000F6750802A5
:1000B30075095820B21DE509450860177F017E00C8
:1000C30012000EE509150970021508E509450870C7
:1000D300E2806775080075091430B21DE50945080B
:1000E30060177F0A7E0012000EE5091509700215DC
:1000F30008E509450870E28041C3E509940CE50869
:1001030094005009744C250AF8E64480F6050BE583
:100113000BC39408408A050AE50AC39404500302FA
:1001230000A0E54FF4654E6011750A00744C250A72
:0A013300F87600050AE50AB404F2AC
:10013D00D007D006D005D004D003D002D001D00016
:0B014D00D0D0D082D083D0F0D0E032C0
:10054B0011213F065B4F666D7D077F6F777C395EB0
:03055B00797100B3
:060285008B168A17891890
:10028B00E4F519ED14F51AF519E519C39408507B2B
:10029B00E519B40800504D9002A9F8282873020202
:1002AB00C10202C50202C90202CD0202D10202D969
:1002BB000202E10202E9D2A4800ED2A48012D2A4DF
:1002CB008016D2A4801AC2A4D2A3D2A28016C2A432
:1002DB00D2A3C2A2800EC2A4C2A3D2A28006C2A481
:1002EB00C2A3C2A2C3E519951AFFE49400AB16AAE8
:1002FB0017A9188F82F583120171F5807F647E0038
:0B030B0012000EE4F5800519020294B8
:0103160022C4
:0F055E00011E00011D00011C00011F00011B00F8
:10063B0053890F4389108F8B8D8DC28FD28ED2AB86
:0C064B00D2AF8F1E8D1D8B1C85191F2245
:03001B0002059C3F
:06059C00C0E0C0F0C0D079
:1005A200851E8A851D8C051BE51B851CF08485F044
:0E05B2001BE51BD3951F5004D2A18002C2A1ED
:0705C000D0D0D0F0D0E032F2
:030006008F1F2227
:03000000020317E1
:0C031700787FE4F6D8FD75815D02035E7E
:10015800BB010689828A83E0225002E722BBFE02A5
:09016800E32289828A83E49322D8
:10017100BB010CE58229F582E5833AF583E0225043
:1001810006E92582F8E622BBFE06E92582F8E2228D
:0D019100E58229F582E5833AF583E49322A7
:10019E00BC000BBE0029EF8DF084FFADF022E4CC45
:1001AE00F875F008EF2FFFEE33FEEC33FCEE9DEC0E
:1001BE00984005FCEE9DFE0FD5F0E9E4CEFD22ED54
:1001CE00F8F5F0EE8420D21CFEADF075F008EF2F9E
:1001DE00FFED33FD4007985006D5F0F222C398FD8F
:0501EE000FD5F0EA222C
:100323000201F3E493A3F8E493A34003F68001F2FC
:1003330008DFF48029E493A3F85407240CC8C333DB
:10034300C4540F4420C8834004F456800146F6DFAA
:10035300E4800B010204081020408090053FE47EF6
:10036300019360BCA3FF543F30E509541FFEE4939F
:10037300A360010ECF54C025E060A840B8E493A366
:10038300FAE493A3F8E493A3C8C582C8CAC583CA91
:10039300F0A3C8C582C8CAC583CADFE9DEE780BE49
:01056D00008D
:00000001FF
