:10043F001209897551057B0A7DFF7FAE1209A8123B
:10044F000713EF24FE600E14600F14601024037066
:10045F00137F94800A7FD480067FA480027FE412EA
:10046F000A16B2A7120625EF14B4100050D190044B
:10047F008B75F003A4C58325F0C583730204BB02FB
:10048F0004BF0204C30204C70204CB0204D0020457
:10049F00D50204DA0204DF0204E40204E90204EEE6
:1004AF000204F30204F80204FD020502B2A7808FD2
:1004BF00B2A7808BB2A78087B2A78083B2A70204AE
:1004CF004EB2A702044EB2A702044EB2A702044EC8
:1004DF00B2A702044EB2A702044EB2A702044EB254
:1004EF00A702044EB2A702044EB2A702044EB2A74F
:0804FF0002044EB2A702044EF4
:10084E00E4FBFAC2B6C2B5FDEFC413131354012470
:10085E00FF92B4EF25E0FFC2B6D2B60DBD08E9D2C5
:10086E00B6C2B6E4FDEB25E0FBEA33FAD2B6C2B669
:10087E00A2B7E43342030DBD0CEBD2B5AE02AF030B
:01088E002247
:0A09C400EF1FAC0670011E4C600E20
:0C09CE00754E02754FC7D54FFDD54EFA8F
:0309DA0080E82290
:0B000E00EF1FAC0670011E4C70F622C4
:0F077200011E00011D00011C00011F00011B00E2
:1009A80053890F4389108F8B8D8DC28FD28ED2AB16
:0C09B800D2AF8F1E8D1D8B1C85511F229D
:03001B0002093E99
:06093E00C0E0C0F0C0D0D3
:10094400851E8A851D8C051BE51B851CF08485F09E
:0E0954001BE51BD3951F5004D2A18002C2A147
:07096200D0D0D0F0D0E0324C
:030A13008F1F2210
:1007130020B1147F147E001209C430B1FD7F147E12
:10072300001209C47F012220B0147F147E00120935
:10073300C430B0FD7F147E001209C47F022220B2B0
:10074300147F147E001209C430B2FD7F147E0012A0
:1007530009C47F032220B3147F147E001209C4301E
:0F076300B3FD7F147E001209C47F04227F0022A1
:05000600C2B6C2B522E4
:0207C000A90787
:1007C200E4FB7E007480A803088006CEA2E713CE65
:1007D20013D8F8FFEDF582EF558224FF92B4D2B61A
:1007E200C2B60BBB08DCD2B5C2B5AF01A807748094
:1007F200088002C313D8FCF4F5807F647E001200E7
:040802000E7580FFF0
:0108060022CF
:1008D0000000000000000000003E48483E007E4846
:1008E0004C32007E525252000040201E2040003CFC
:1008F00042423C007C02027C00003C42423C007EC2
:1009000018244200007A7A00000000000000000075
:10078100010EA4020F0000C181020C0000011A0039
:09079100010B00010800010A003F
:100989005389F0438901E4F58A758CDCC28DD28CD8
:0F099900D2A9D2AF751976F5161200060209FF22
:03000B0002036E7F
:10036E00C0E0C0F0C083C082C0D075D000C000C055
:0D037E0001C002C003C004C005C006C007D6
:10038B00758A00758CDC0508E50875F0648485F0CA
:10039B0008120A1C8F1AE51AC4540FFF1209EF8FAB
:1003AB0017E51A540FFF1209EF8F18E50875F00FB8
:1003BB0084E5F07059AF0E12084E8E0F8F107C0330
:1003CB007DE81201D91209EF8F12AE0FAF107C002E
:1003DB007D641201D97C007D0A1201D9AF05120987
:1003EB00EF8F13AE0FAF107C007D0A1201D97C008A
:1003FB007D0A1201D9AF051209EF8F14AE0FAF10A2
:10040B007C007D0A1201D9AF051209EF8F157B0015
:09041B007A0079127D0112050737
:10042400D007D006D005D004D003D002D001D0002C
:0B043400D0D0D082D083D0F0D0E032D6
:030A16008F0E221E
:050A0E00A2009201228C
:030A1900A2012215
:10079A0010210102030405060708090A0B0C0D0EB5
:0207AA000F102E
:1006250075900FE590640F606D7F147E001209C40C
:10063500AF90EF24F5601024FE60111460132407B9
:100645007012E4F532800D75320180087532028032
:10065500037532037590F0AF90EF2450601124E0DC
:10066500601224F0601324707012E4F531800D756A
:10067500310180087531028003753103E590B4F0CE
:10068500FB7F147E001209C4E53125E025E0242115
:080695002532F8E6FF227F0088
:01069D00223A
:1009DD00C2B77F4B7E0012000ED2B77F027E00029F
:0209ED00000EFA
:10080700E4F56230B712E562C39414500B05627FBA
:10081700017E0012000E80EBE562C3941440037F53
:100827000122E4F56220B712E562C39414500B0568
:10083700627F017E0012000E80EBE562C3941440D4
:06084700037F01227F0087
:01084D002288
:060A08001209DD020807DF
:02088F008F6078
:10089100E4F5617E007401A861088005C333CE339D
:1008A100CED8F9FFEF5560600FC2B70000D2B77F15
:1008B100067E0012000E800DC2B77F067E00120078
:0E08C1000ED2B700000561E561C3940840C582
:0108CF002206
:10096900E4F563C2B70000D2B7000030B70575637C
:0F097900018003E4F5637F057E0012000EAF637B
:01098800224C
:10091000E4F55EF55FF55DE55FC313F55FC2B70013
:1009200000D2B7000030B703435F807F057E00121E
:0D093000000E055DE55DC3940840DCAF5F7F
:01093D002297
:10069E00120A087FCC12088F7F4412088F120A08A4
:1006AE007FCC12088F7FBE12088F1209108F521244
:1006BE000910AD07EDFEE552FBEEF553EBF554EDEB
:1006CE0054F8FFBFF81CE554F4FFE553F4FEEF2495
:1006DE0001FDE43EFCE4120129E4FBFA798078BDC9
:1006EE00800FAC53AD54E4120129E4FBFA79807803
:1006FE003D12001E8F588E578D568C55AF58AE57E3
:04070E00AD56AC55E3
:0107120022C4
:1007AC0011333F065B4F666D7D077F6F777C395E3B
:0307BC0079710050
:1009EF00EFC39411500774332FF8E6FF227F0022D4
:060507008B448A45894681
:10050D00E4F547ED14F548F547E547C39408507BEE
:10051D00E547B40800504D90052BF82828730205C7
:10052D004302054702054B02054F02055302055BC9
:10053D0002056302056BD2A4800ED2A48012D2A450
:10054D008016D2A4801AC2A4D2A3D2A28016C2A4AD
:10055D00D2A3C2A2800EC2A4C2A3D2A28006C2A4FC
:10056D00C2A3C2A2C3E5479548FFE49400AB44AAD9
:10057D0045A9468F82F5831201ACF5807F647E001C
:0B058D0012000EE4F580054702051681
:010598002240
:0909FF00D288D2A8D2AFD2B222F4
:0300030002023CBA
:10023C00C0E0C0F0C083C082C0D075D000C000C088
:0D024C0001C002C003C004C005C006C00709
:10025900754D0030B203020353754903754AE8200E
:10026900B21EE54A454960187F017E0012000EE57D
:100279004A154A70021549E54A454970E202035395
:1002890030B227754902754A2630B21EE54A4549FA
:1002990060187F017E0012000EE54A154A700215AA
:1002A90049E54A454970E2020353754B00754C0014
:1002B9007459254BF8C000E6C313D000F6754902FE
:1002C900754A5820B21DE54A454960177F017E00ED
:1002D90012000EE54A154A70021549E54A4549706A
:1002E900E28067754900754A1430B21DE54A4549EF
:1002F90060177F0A7E0012000EE54A154A70021542
:1003090049E54A454970E28041C3E54A940CE5490B
:10031900940050097459254BF8E64480F6054CE5DC
:100329004CC39408408A054BE54BC394045003021F
:1003390002B6E55CF4655B6011754B007459254B99
:0A034900F87600054BE54BB404F212
:10035300D007D006D005D004D003D002D001D000FE
:0B036300D0D0D082D083D0F0D0E032A8
:030A1C00AF5B22AB
:10001E00EC4D6011E8497017ED33EC3304600DE4DC
:10002E00FCFFFEFD22E933E8330470F8020197125B
:10003E00016258046009E4CC24815006285009025C
:10004E0001A128400302019EC0E0EB4A7044B98032
:10005E0006D0E0FB02018DEF4E701CBD8008EBFF59
:10006E00EAFEE9FD80EBE98DF0A4FEE5F002010762
:10007E00E9CDF9EAFEEBFFEF89F0A4FCE5F0CE89BD
:10008E00F0A42EFFE435F0CD89F0A42DFEE435F07A
:10009E008067EF4E7005BD80D780C3EF8BF0A4ACA8
:1000AE00F0EE8BF0A42CFCE435F0F8EF8AF0A42CE3
:1000BE00E5F038FCE433CB8DF0A42CFCE5F03BF8F6
:1000CE00EE8AF0A42CFCE5F038F8E433CF89F0A4E6
:1000DE002CFCE5F038CF3400CE89F0A42FFFE5F0EC
:1000EE003EFEE433C98DF0A42EFEE5F039CD8AF044
:1000FE00A42FFFE5F03EFEE43DFD33D0E0FB5007BC
:10010E000BBB000F0201A1EC2CFCEF33FFEE33FE14
:06011E00ED33FD02017942
:1001240075F020800E75F010800575F0087D007E56
:10013400007F003392D530D50312022EEC334010E9
:10014400EF33FFEE33FEED33FDEC33FCD5F0ED225F
:0E015400E5F0247EA2D513CC92E7CDCEFF229B
:10016200E9D2E7C933E833F892D5EDD2E7CD33ECE3
:0701720033FC5002B2D5225C
:10017900EC30E7100FBF000C0EBE00080DBD0004E7
:100189000BEB6014A2D5EB13FCED92E7FD2274FF93
:10019900FCFDFEFF22E480F8A2D574FF13FC7D80EC
:0301A900E480EF00
:030000000205995D
:0C059900787FE4F6D8FD7581630205E070
:1001AC00BB010CE58229F582E5833AF583E0225008
:1001BC0006E92582F8E622BBFE06E92582F8E22252
:0D01CC00E58229F582E5833AF583E493226C
:1001D900BC000BBE0029EF8DF084FFADF022E4CC0A
:1001E900F875F008EF2FFFEE33FEEC33FCEE9DECD3
:1001F900984005FCEE9DFE0FD5F0E9E4CEFD22ED19
:10020900F8F5F0EE8420D21CFEADF075F008EF2F62
:10021900FFED33FD4007985006D5F0F222C398FD53
:050229000FD5F0EA22F0
:0E022E00C3E49FFFE49EFEE49DFDE49CFC22E1
:1005A50002043FE493A3F8E493A34003F68001F229
:1005B50008DFF48029E493A3F85407240CC8C33357
:1005C500C4540F4420C8834004F456800146F6DF26
:1005D500E4800B0102040810204080900772E47E3D
:1005E500019360BCA3FF543F30E509541FFEE4931B
:1005F500A360010ECF54C025E060A840B8E493A3E2
:10060500FAE493A3F8E493A3C8C582C8CAC583CA0C
:10061500F0A3C8C582C8CAC583CADFE9DEE780BEC4
:0107BF000039
:00000001FF
