:1006A600120F7478847405F27B0A7DFF7FAE120EFA
:1006B600F8120A92EF24FE600E14600F14601024E4
:1006C6000370137F94800A7FD480067FA480027F04
:1006D600E412101EB2A7120815EF14B4100050D180
:1006E6009006F475F003A4C58325F0C5837302074D
:1006F6002402072802072C020730020734020739B2
:1007060002073E02074302074802074D020752024C
:10071600075702075C02076102076602076BB2A76A
:10072600808FB2A7808BB2A78087B2A78083B2A73B
:100736000206B7B2A70206B7B2A70206B7B2A70269
:1007460006B7B2A70206B7B2A70206B7B2A7020655
:10075600B7B2A70206B7B2A70206B7B2A70206B794
:0A076600B2A70206B7B2A70206B759
:050BEF00C100810300BC
:100F3E0043878075985053890F438920758BFA75B6
:0B0F4E008DFAC2ABD2ACD2AFD28E2223
:100DE2007800EBF208EAF208E9F27800E2FB08E2A6
:100DF200FA08E2F91202E1601D7800E2FB0808E25B
:100E0200F92401F218E2FA3400F21202E1F5993003
:070E120099FDC29980D42272
:09100100C2007BFE7A0079042292
:03002300020C8943
:0B0C8900C0E0C0D075D000C000C00764
:100C9400200033309830C2987803E2FF2404F8E54A
:100CA40099F27804E2B4231AEFC39408501418E2BA
:100CB4002404F8E2B42404D20080077803E204F2A6
:060CC40080047803E4F255
:090CCA00D007D000D0D0D0E032F8
:100EB100D2A07F017E0012000ED2A17F017E00121E
:100EC100000EC2A07F017E0012000EC2A17F017E32
:040ED1000002000E0D
:100F5900C2A07F017E0012000ED2A17F017E001285
:0B0F6900000ED2A07F017E0002000EEF
:040D6200780CEFF228
:100D6600C2A1E408F2780CE2FFC413131354012461
:100D7600FF92A0EF25E0F27F017E0012000ED2A1C5
:100D86007F017E0012000EC2A17F017E0012000EBE
:0B0D9600780DE204F2E2C3940840CAAA
:010DA100222F
:100E8400D2A0E4780EF2D2A17F017E0012000E7887
:100E94000FE225E0FFF2A2A0E4334FF2C2A118E270
:0C0EA40004F2E2C3940840DE780FE2FF85
:010EB000221F
:100F8E00C2A1C2A07F017E0012000ED2A17F017EFF
:070F9E000012000EC2A122A7
:100FA500C2A1D2A07F017E0012000ED2A17F017ED8
:070FB5000012000EC2A12290
:100FBC00D2A0D2A17F017E0012000EA2A0E433FFCA
:020FCC00C2A1C0
:010FCE002200
:100B4C00E47877F208F2C2B6C2B5FDEFC413131302
:100B5C00540124FF92B4EF25E0FFC2B6D2B60DEDDE
:100B6C00B408E8D2B6C2B6E4FD7878E225E079782C
:100B7C00F318E23319F3D2B6C2B6A2B7E433FFE2EC
:100B8C00F208E24FF20DEDB40CDFD2B57877E2FE4D
:030B9C0008E2FF6D
:010B9F002233
:0D0AF1007810EFF208EBF208EAF208E9F2E3
:100AFE00120EB17FA0120D62120FBC7810E2FF121F
:100B0E000D62120FBCE47815F27814E2FF08E2FED3
:100B1E00C39F50207811E2FB08E2FA08E2F98E82B8
:100B2E007583001202FAFF120D62120FBC7815E2E5
:0E0B3E0004F280D5120F597F057E00020ED5FD
:070A2F007816EFF208EDF26A
:100A3600120EB17FA0120D62120FBC7816E2FF12E1
:100A46000D62120FBC120EB17FA1120D62120FBC05
:100A5600E47818F27817E2FF08E2C39F5021120EDD
:100A6600847818E2FE2419F8EFF200007817E214F1
:100A76006E6005120F8E00007818E204F280D5121F
:0B0A86000FA5120F597BFE7A007919B2
:010A91002242
:040E19007821EFF25B
:100E1D00120EB17FA0120D62120FBC7821E2FF12EB
:100E2D000D62120FBC120EB17FA1120D62120FBC1A
:100E3D00120E847822EFF2120FA5120F597822E2CA
:010E4D00FFA5
:010E4E002281
:0A0ED500EF1FAC0670011E4C601800
:100EDF0078817402F20874C7F27882E214F270F922
:060EEF0018E214F270F39A
:030EF50080DE227A
:0B000E00EF1FAC0670011E4C70F622C4
:09100A00D288D2A8D2AFD2B222E2
:030003000203CC29
:1003CC00C0E0C0F0C083C082C0D075D000C000C0F7
:0D03DC0001C002C003C004C005C006C00778
:1003E9007876E4F230B20302052878727403F208D1
:1003F90074E8F220B2267873E2700218E2601D7F79
:10040900017E0012000E7873E224FFF218E234FF35
:10041900F208E2700218E270DA02052830B2327886
:10042900727402F2087426F230B2267873E270020E
:1004390018E2601D7F017E0012000E7873E224FF2E
:10044900F218E234FFF208E2700218E270DA0205EB
:10045900287874E4F27875E4F27874E22423F8C019
:1004690000E2C313D000F278727402F2087458F2F1
:1004790020B2267873E2700218E2601D7F017E00C7
:1004890012000E7873E224FFF218E234FFF208E258
:10049900700218E270DA0205287872E4F20874141E
:1004A900F230B2257873E2700218E2601C7F0A7E8E
:1004B9000012000E7873E224FFF218E234FFF2080A
:1004C900E2700218E270DA8056C37873E2940C186D
:1004D900E29400500A7874E22423F8E24480F27826
:1004E90075E204F2E2C3940850030204627874E2EC
:1004F90004F2E2C39404500302045E7826E2F4FF96
:1005090018E26F601A7874E4F27874E2FFC3940415
:0F051900500D74232FF8E4F27874E204F280EAB4
:10052800D007D006D005D004D003D002D001D00027
:0B053800D0D0D082D083D0F0D0E032D1
:050006007825E2FF2255
:100BF40091273F065B4F666D7D077F6F777C395E7B
:030C040079710003
:100FE100EFC39410500774272FF8E2FF227F0022ED
:0A0770007877EBF208EAF208E9F2EC
:10077A00E408F2ED1408F218F2787AE2FFC394085A
:10078A004003020814EFB40800504D90079CF82863
:10079A0028730207B40207B80207BC0207C002079F
:1007AA00C40207CC0207D40207DCD2A4800ED2A46A
:1007BA008012D2A48016D2A4801AC2A4D2A3D2A232
:1007CA008016C2A4D2A3C2A2800EC2A4C2A3D2A27D
:1007DA008006C2A4C2A3C2A2787BE2FF18E2C39F2A
:1007EA00FFE49400FE7877E2FB08E2FA08E2F98F68
:1007FA00828E831202FAF5807F647E0012000EE474
:0A080A00F580787AE204F202078319
:0108140022C1
:0F0C0700813B00813A00813900813C0081380037
:100EF80053890F4389108F8B8D8DC28FD28ED2ABC1
:100F0800D2AF783BEFF218EDF218EBF27884E27882
:030F18003CF22286
:03001B00020D1BB8
:0F0D1B00C0E0C0F0C0D075D000C000C006C00757
:100D2A00783BE2F58A18E2F58C7838E204F2E2FFC1
:100D3A0008E2FEEF8EF084AFF018EFF2783CE2FEA4
:0B0D4A00EFD39E5004D2A18002C2A192
:0D0D5500D007D006D000D0D0D0F0D0E032D2
:05001E00783CEFF22226
:100A920020B1147F147E00120ED530B1FD7F147E7A
:100AA20000120ED57F012220B0147F147E00120E98
:100AB200D530B0FD7F147E00120ED57F022220B207
:100AC200147F147E00120ED530B2FD7F147E001208
:100AD2000ED57F032220B3147F147E00120ED53070
:0F0AE200B3FD7F147E00120ED57F04227F002209
:05101900C2B6C2B522C1
:020CD300A9076F
:100CD500E4FB7E007480A803088006CEA2E713CE4D
:100CE50013D8F8FFEDF582EF558224FF92B4D2B602
:100CF500C2B60BEBB408DBD2B5C2B5AF01A8077419
:100D050080088002C313D8FCF4F5807F647E00124E
:050D1500000E7580FFD7
:010D1A0022B6
:100DA2000000000000000000003E48483E007E486F
:100DB2004C32007E525252000040201E2040003C25
:100DC20042423C007C02027C00003C42423C007EEB
:100DD20018244200007A7A0000000000000000009F
:100C16008142A482430000C18282400000813D00DF
:030C2600813F000B
:100F74005389F0438901E4F58A758CDCC28DD28CE7
:0A0F8400D2A9D2AF12101902101307
:03000B00020543A8
:10054300C0E0C0F0C083C082C0D075D000C000C07E
:0D05530001C002C003C004C005C006C007FF
:10056000758A00758CDC783DE204F2E275F06484F3
:10057000AFF0EFF230E0030206801209B0E4FBFABC
:100580007920784112002612016A7840EEF208EFD5
:10059000F2C3EE64809480784950177440F278403A
:1005A000E2FE08E2FFC3E49FFFE49E18F208EFF2C8
:1005B0008002E4F27840E2FE08E2FF7C037DE8126C
:1005C000037C7E007F64CFCDCFCECCCE12037C12D5
:1005D0000FE1784AEFF27840E2FE08E2FF7C007D0E
:1005E0006412037C7E007F0ACFCDCFCECCCE120327
:1005F0007C120FE1EF4480784BF27840E2FE08E293
:10060000FF7C007D0A12037CAF05120FE1784CEFEE
:10061000F27842E2FF120B4C7843EEF208EFF27CE4
:10062000037DE8120327120FE17845EFF27843E2E9
:10063000FE08E2FF7C007D641203277C007D0A1225
:100640000327AF05120FE17846EFF27843E2FE0888
:10065000E2FF7C007D0A1203277C007D0A1203273B
:10066000AF05120FE17847EFF27843E2FE08E2FFB0
:100670007C007D0A120327AF05120FE17848EFF2E4
:0B0680007BFE7A0079457D01120770B7
:10068B00D007D006D005D004D003D002D001D000C3
:0B069B00D0D0D082D083D0F0D0E0326D
:05101E007842EFF22210
:05102300A2019202226F
:03102800A20222FF
:100C2900904D0102030405060708090A0B0C0D0E75
:020C39000F109A
:1008150075900FE590640F700302089F7F147E00AA
:10082500120ED5AF90EF24F5601124FE601414600C
:100835001824077019E4785EF28013785E7401F26B
:10084500800C785E7402F28005785E7403F2759010
:10085500F0AF90EF2450601224E0601524F060188A
:1008650024707019E4785DF28013785D7401F2806C
:100875000C785D7402F28005785D7403F2E590B43E
:10088500F0FB7F147E00120ED5785EE2FF18E2259C
:0C089500E025E0244D2FF8E2FF227F0058
:0108A1002234
:100FCF00C2B77F4B7E0012000ED2B77F027E0002A7
:020FDF00000E02
:100BA000E47881F230B7147881E2C39414500CE2F7
:100BB00004F27F017E0012000E80E97881E2C39486
:100BC0001440037F0122E47881F220B7147881E297
:100BD000C39414500CE204F27F017E0012000E80D8
:0E0BE000E97881E2C3941440037F01227F0074
:010BEE0022E4
:06101300120FCF020BA03A
:040C3C00787EEFF2DD
:100C4000E408F2787FE2FFC39408503C7E00740110
:100C5000A807088005C333CE33CED8F9FF787EE2EB
:100C6000FDEF5D600FC2B70000D2B77F067E0012B5
:100C7000000E800DC2B77F067E0012000ED2B700B4
:080C800000787FE204F280BB62
:010C88002249
:100F1B00E4785FF2C2B70000D2B7000030B7040428
:100F2B00F28004E4785FF27F057E0012000E785F9A
:020F3B00E2FFD3
:010F3D002291
:100E4F00E4787FF208F2787EF27880E2C313F2C280
:100E5F00B70000D2B7000030B704E24480F27F053C
:100E6F007E0012000E787EE204F2E2C3940840D9AD
:040E7F007880E2FF96
:010E8300224C
:1009B0001210137FCC120C3C7F44120C3C1210130B
:1009C0007FCC120C3C7FBE120C3C120E4F7877EF9E
:1009D000F2120E4FAD07EDFE7877E2FBEE08F2EB78
:1009E00008F2EF54F8FFBFF81E18E2FE08E2F4FF29
:1009F000EEF4FEEF2401FDE43EFCE4120131E4FBE1
:100A0000FA798078BD80127878E2FC08E2FDE41281
:100A10000131E4FBFA7980783D120026787A1203DE
:0E0A2000C0787AE2FC08E2FD08E2FE08E2FF80
:010A2E0022A5
:100FF1003F065B4F666D7D077F6F777C395E797148
:07092E007860EFF208EDF222
:10093500087C007DFE7BFF7A0F79F17E007F101227
:1009450002BB7860E2B40800504D900956F828289B
:100955007302096E02097202097602097A02097E9A
:1009650002098602098E020996D2A4800ED2A480BD
:1009750012D2A48016D2A4801AC2A4D2A3D2A28075
:1009850016C2A4D2A3C2A2800EC2A4C2A3D2A280C0
:1009950006C2A4C2A3C2A27861E22462F8E2F5808D
:0A09A5007F017E00120ED5E4F580FC
:0109AF002225
:10002600EC4D6011E8497017ED33EC3304600DE4D4
:10003600FCFFFEFD22E933E8330470F80201D61214
:1000460001A158046009E4CC248150062850090215
:1000560001E02840030201DDC0E0EB4A7044B980AC
:1000660006D0E0FB0201CCEF4E701CBD8008EBFF12
:10007600EAFEE9FD80EBE98DF0A4FEE5F002010F52
:10008600E9CDF9EAFEEBFFEF89F0A4FCE5F0CE89B5
:10009600F0A42EFFE435F0CD89F0A42DFEE435F072
:1000A6008067EF4E7005BD80D780C3EF8BF0A4ACA0
:1000B600F0EE8BF0A42CFCE435F0F8EF8AF0A42CDB
:1000C600E5F038FCE433CB8DF0A42CFCE5F03BF8EE
:1000D600EE8AF0A42CFCE5F038F8E433CF89F0A4DE
:1000E6002CFCE5F038CF3400CE89F0A42FFFE5F0E4
:1000F6003EFEE433C98DF0A42EFEE5F039CD8AF03C
:10010600A42FFFE5F03EFEE43DFD33D0E0FB5007B3
:100116000BBB000F0201E0EC2CFCEF33FFEE33FECD
:06012600ED33FD0201B8FB
:10012C0075F020800E75F010800575F0087D007E4E
:10013C00007F003392D530D5031203B2EC3340105C
:10014C00EF33FFEE33FEED33FDEC33FCD5F0ED2257
:0E015C00E5F0247EA2D513CC92E7CDCEFF2293
:10016A00EDD2E7CD33EC3392D524814006E4FFFE8D
:10017A00FDFC22FCE4CFCECDCC24E0501174FF80EC
:10018A00EDC3CC13CCCD13CDCE13CECF13CF047089
:07019A00F030D5DE0203B2D4
:1001A100E9D2E7C933E833F892D5EDD2E7CD33ECA4
:0701B10033FC5002B2D5221D
:1001B800EC30E7100FBF000C0EBE00080DBD0004A8
:1001C8000BEB6014A2D5EB13FCED92E7FD2274FF54
:1001D800FCFDFEFF22E480F8A2D574FF13FC7D80AD
:0301E800E480EFC1
:030000000208A251
:0C08A200787FE4F6D8FD7581200208E99B
:1001EB00E709F608DFFA8046E709F208DFFA803EF6
:1001FB0088828C83E709F0A3DFFA8032E309F608E3
:10020B00DFFA8078E309F208DFFA807088828C834A
:10021B00E309F0A3DFFA806489828A83E0A3F608FE
:10022B00DFFA805889828A83E0A3F208DFFA804CD8
:10023B0080D280FA80C680D4806980F280338010AF
:10024B0080A680EA809A80A880DA80E280CA803318
:10025B0089828A83ECFAE493A3C8C582C8CCC58390
:10026B00CCF0A3C8C582C8CCC583CCDFE9DEE78060
:10027B000D89828A83E493A3F608DFF9ECFAA9F0DF
:10028B00EDFB2289828A83ECFAE0A3C8C582C8CC35
:10029B00C583CCF0A3C8C582C8CCC583CCDFEADE4E
:1002AB00E880DB89828A83E493A3F208DFF980CCB0
:1002BB0088F0EF60010E4E60C388F0ED2402B404A9
:1002CB000050B9F582EB2402B4040050AF23234550
:0602DB00822390023B7338
:1002E100BB010689828A83E0225002E722BBFE021B
:0902F100E32289828A83E493224E
:1002FA00BB010CE58229F582E5833AF583E02250B9
:10030A0006E92582F8E622BBFE06E92582F8E22202
:0D031A00E58229F582E5833AF583E493221C
:10032700BC000BBE0029EF8DF084FFADF022E4CCBA
:10033700F875F008EF2FFFEE33FEEC33FCEE9DEC83
:10034700984005FCEE9DFE0FD5F0E9E4CEFD22EDC9
:10035700F8F5F0EE8420D21CFEADF075F008EF2F13
:10036700FFED33FD4007985006D5F0F222C398FD04
:050377000FD5F0EA22A1
:10037C00C2D5EC30E709B2D5E4C39DFDE49CFCEE9C
:10038C0030E715B2D5E4C39FFFE49EFE120327C3EA
:10039C00E49DFDE49CFC800312032730D507C3E4E5
:0603AC009FFFE49EFE220B
:0E03B200C3E49FFFE49EFEE49DFDE49CFC225C
:0C03C000ECF208EDF208EEF208EFF22279
:1008AE000206A6E493A3F8E493A34003F68001F2B4
:1008BE0008DFF48029E493A3F85407240CC8C3334B
:1008CE00C4540F4420C8834004F456800146F6DF1A
:1008DE00E4800B0102040810204080900BEFE47EB0
:1008EE00019360BCA3FF543F30E509541FFEE4930F
:1008FE00A360010ECF54C025E060A840B8E493A3D6
:10090E00FAE493A3F8E493A3C8C582C8CAC583CA00
:10091E00F0A3C8C582C8CAC583CADFE9DEE780BEB8
:010C3B0000B8
:00000001FF
