:100933000000000000000000003E48483E007E48E2
:100943004C32007E525252000040201E2040003C98
:1009530042423C007C02027C00003C42423C007E5E
:1009630018244200007A7A00000000000000000012
:1002A9007515A4E4F516F517F519F51AF51BF51CDE
:1002B900120A311207C4EF24FE601114601514608C
:1002C900192403701A751594B2A780137515D4B241
:1002D900A7800C7515A4B2A780057515E4B2A712FD
:1002E90006D6EF14B4100040030203769003037599
:1002F900F003A4C58325F0C58373020333020337D2
:1003090002033B02033F02034302034C0203500270
:10031900035402035802035C0203600203640203EC
:100329006802036C0203700203747F01800E7F026E
:10033900800A7F0380067F0480027F05120A77B254
:10034900A7802AB2A78026B2A78022B2A7801EB2B0
:10035900A7801AB2A78016B2A78012B2A7800EB2E0
:10036900A7800AB2A78006B2A78002B2A7AF15126A
:1003790008B18E168F177C037DE8120210120A4805
:100389008F0DAE16AF177C007D641202107C007DC4
:100399000A120210AF05120A488F0EAE16AF177C6B
:1003A900007D0A1202107C007D0A120210AF0512AC
:1003B9000A488F0FAE16AF177C007D0A120210AFE4
:1003C90005120A488F1012074FE4FBFA7920784189
:1003D90012001E1201628E1B8F1CC3E51B648094E0
:1003E900805010751140C3E4951CF51CE4951BF56C
:1003F9001B8003E4F511AE1BAF1C7C007D64120267
:1004090065120A488F12AE1BAF1C7C007D0A1202CE
:10041900657C007D0A120265AF05120A48EF448027
:10042900F513AE1BAF1C7C007D0A120265AF0512E5
:100439000A488F147B007A00790D7D011205B805F1
:1004490019E51975F0148485F019E4F518E51825EE
:100459001A90093393FDAF181208230518E518C33C
:10046900940840E9E51960030202BC051AE51AD3AC
:0D047900943850030202BCE4F51A0202BCE4
:1008B100E4FBFAC2B6C2B5FDEFC41313135401240D
:1008C100FF92B4EF25E0FFC2B6D2B60DBD08E9D262
:1008D100B6C2B6E4FDEB25E0FBEA33FAD2B6C2B606
:1008E100A2B7E43342030DBD0CEBD2B5AE02AF03A8
:0108F10022E4
:0A0A1800EF1FAC0670011E4C600ECB
:0C0A2200751D02751EC7D51EFDD51DFAFE
:030A2E0080E8223B
:0B0A5800EF1FAC0670011E4C70F62270
:1007C40020B1147F0A7E00120A1830B1FD7F0A7E20
:1007D40000120A187F012220B0147F0A7E00120A38
:1007E4001830B0FD7F0A7E00120A187F022220B260
:1007F400147F0A7E00120A1830B2FD7F0A7E0012AE
:100804000A187F032220B3147F0A7E00120A1830CC
:0F081400B3FD7F0A7E00120A187F04227F0022A4
:050A7200C2B6C2B5226E
:02082300A90723
:10082500E4FB7E007480A803088006CEA2E713CE01
:1008350013D8F8FFEDF582EF558224FF92B4D2B6B6
:10084500C2B60BBB08DCD2B5C2B5AF01A807748030
:10085500088002C313D8FCF4F5807F647E00120A79
:04086500587580FF43
:01086900226C
:1009A10010270102030405060708090A0B0C0D0EA6
:0209B1000F1025
:1006D60075900FE590640F606D7F0A7E00120A1810
:1006E600AF90EF24F5601024FE6011146013240708
:1006F6007012E4F538800D7538018008753802806F
:10070600037538037590F0AF90EF2450601124E024
:10071600601224F0601324707012E4F537800D75B2
:10072600370180087537028003753703E590B4F00A
:10073600FB7F0A7E00120A18E53725E025E024270C
:080746002538F8E6FF227F00D0
:01074E002288
:10000600C2B77F4B7E00120A58D2B77F027E00022B
:020016000A5886
:10086A00E4F52430B712E524C39414500B05247F11
:10087A00017E00120A5880EBE524C3941440037FDA
:10088A000122E4F52420B712E524C39414500B0581
:10089A00247F017E00120A5880EBE524C394144099
:0608AA00037F01227F0024
:0108B0002225
:060A6C0012000602086AF8
:0208F2008F2451
:1008F400E4F5257E007401A825088005C333CE33B2
:10090400CED8F9FFEF5524600FC2B70000D2B77FED
:10091400067E00120A58800DC2B77F067E00120AB6
:0E09240058D2B700000525E525C3940840C54C
:0109320022A2
:1009F800E4F550C2B70000D2B7000030B705755013
:0F0A0800018003E4F5507F057E00120A58AF50BD
:010A170022BC
:10097300E4F525F526F524E526C313F526C2B700CD
:1009830000D2B7000030B7034326807F057E0012F4
:0D0993000A580524E524C3940840DCAF2673
:0109A0002234
:10074F00120A6C7FCC1208F27F441208F2120A6C64
:10075F007FCC1208F27FBE1208F21209738F1D129E
:10076F000973AD07EDFEE51DFBEEF51EEBF51FED75
:10077F0054F8FFBFF81CE51FF4FFE51EF4FEEF244D
:10078F0001FDE43EFCE4120129E4FBFA798078BD17
:10079F00800FAC1EAD1FE4120129E4FBFA798078BB
:1007AF003D12001E8F238E228D218C20AF23AE226F
:0407BF00AD21AC209C
:0107C3002213
:1009B30011393F065B4F666D7D077F6F777C395E2C
:0309C30079710047
:100A4800EFC39411500774392FF8E6FF227F002274
:0605B8008B1D8A1E891F45
:1005BE00E4F520ED14F521F520E520C39408507BD9
:1005CE00E520B40800504D9005DCF828287302058C
:1005DE00F40205F80205FC02060002060402060CEF
:1005EE0002061402061CD2A4800ED2A48012D2A43B
:1005FE008016D2A4801AC2A4D2A3D2A28016C2A4FC
:10060E00D2A3C2A2800EC2A4C2A3D2A28006C2A44A
:10061E00C2A3C2A2C3E5209521FFE49400AB1DAA9C
:10062E001EA91F8F82F5831201E3F5807F647E0081
:0B063E00120A58E4F58005200205C7F1
:01064900228E
:090A6300D288D2A8D2AFD2B2228F
:030003000204866E
:10048600C0E0C0F0C083C082C0D075D000C000C03C
:0D04960001C002C003C004C005C006C007BD
:1004A300750C0030B20302059D7508037509E82039
:1004B300B21EE509450860187F017E00120A58E55F
:1004C30009150970021508E509450870E202059D42
:1004D30030B22775080275092630B21EE5094508B2
:1004E30060187F017E00120A58E50915097002158C
:1004F30008E509450870E202059D750A00750B00C1
:10050300744A250AF8C000E6C313D000F675080242
:1005130075095820B21DE509450860177F017E0063
:10052300120A58E509150970021508E5094508700E
:10053300E2806775080075091430B21DE5094508A6
:1005430060177F0A7E00120A58E509150970021523
:1005530008E509450870E28041C3E509940CE50804
:1005630094005009744A250AF8E64480F6050BE521
:100573000BC39408408A050AE50AC3940450030296
:100583000500E54DF4654C6011750A00744A250AAF
:0A059300F87600050AE50AB404F248
:10059D00D007D006D005D004D003D002D001D000B2
:0B05AD00D0D0D082D083D0F0D0E0325C
:03001800AF4C22C8
:0609C600014F01014E008B
:100A310053890F438910758B33758DFEC28FD28E0A
:070A4100D2ABD2AFD2A1221B
:03001B000209CD0A
:0609CD00C0E0C0F0C0D044
:1009D300758B33758DFE054EE54E75F0288485F0D5
:0E09E3004EE54EC3954F5004D2A18002C2A132
:0709F100D0D0D0F0D0E032BD
:030A77008F4F227C
:10001E00EC4D6011E8497017ED33EC3304600DE4DC
:10002E00FCFFFEFD22E933E8330470F80201CE1224
:10003E00019958046009E4CC248150062850090225
:10004E0001D82840030201D5C0E0EB4A7044B980C4
:10005E0006D0E0FB0201C4EF4E701CBD8008EBFF22
:10006E00EAFEE9FD80EBE98DF0A4FEE5F002010762
:10007E00E9CDF9EAFEEBFFEF89F0A4FCE5F0CE89BD
:10008E00F0A42EFFE435F0CD89F0A42DFEE435F07A
:10009E008067EF4E7005BD80D780C3EF8BF0A4ACA8
:1000AE00F0EE8BF0A42CFCE435F0F8EF8AF0A42CE3
:1000BE00E5F038FCE433CB8DF0A42CFCE5F03BF8F6
:1000CE00EE8AF0A42CFCE5F038F8E433CF89F0A4E6
:1000DE002CFCE5F038CF3400CE89F0A42FFFE5F0EC
:1000EE003EFEE433C98DF0A42EFEE5F039CD8AF044
:1000FE00A42FFFE5F03EFEE43DFD33D0E0FB5007BC
:10010E000BBB000F0201D8EC2CFCEF33FFEE33FEDD
:06011E00ED33FD0201B00B
:1001240075F020800E75F010800575F0087D007E56
:10013400007F003392D530D50312029BEC3340107C
:10014400EF33FFEE33FEED33FDEC33FCD5F0ED225F
:0E015400E5F0247EA2D513CC92E7CDCEFF229B
:10016200EDD2E7CD33EC3392D524814006E4FFFE95
:10017200FDFC22FCE4CFCECDCC24E0501174FF80F4
:10018200EDC3CC13CCCD13CDCE13CECF13CF047091
:07019200F030D5DE02029BF4
:10019900E9D2E7C933E833F892D5EDD2E7CD33ECAC
:0701A90033FC5002B2D52225
:1001B000EC30E7100FBF000C0EBE00080DBD0004B0
:1001C0000BEB6014A2D5EB13FCED92E7FD2274FF5C
:1001D000FCFDFEFF22E480F8A2D574FF13FC7D80B5
:0301E000E480EFC9
:0300000002064AAB
:0C064A00787FE4F6D8FD7581500206911F
:1001E300BB010CE58229F582E5833AF583E02250D1
:1001F30006E92582F8E622BBFE06E92582F8E2221B
:0D020300E58229F582E5833AF583E4932234
:10021000BC000BBE0029EF8DF084FFADF022E4CCD2
:10022000F875F008EF2FFFEE33FEEC33FCEE9DEC9B
:10023000984005FCEE9DFE0FD5F0E9E4CEFD22EDE1
:10024000F8F5F0EE8420D21CFEADF075F008EF2F2B
:10025000FFED33FD4007985006D5F0F222C398FD1C
:050260000FD5F0EA22B9
:10026500C2D5EC30E709B2D5E4C39DFDE49CFCEEB4
:1002750030E715B2D5E4C39FFFE49EFE120210C31A
:10028500E49DFDE49CFC800312021030D507C3E415
:060295009FFFE49EFE2223
:0E029B00C3E49FFFE49EFEE49DFDE49CFC2274
:100656000202A9E493A3F8E493A34003F68001F20F
:1006660008DFF48029E493A3F85407240CC8C333A5
:10067600C4540F4420C8834004F456800146F6DF74
:10068600E4800B01020408102040809009A1E47E5A
:10069600019360BCA3FF543F30E509541FFEE49369
:1006A600A360010ECF54C025E060A840B8E493A330
:1006B600FAE493A3F8E493A3C8C582C8CAC583CA5B
:1006C600F0A3C8C582C8CAC583CADFE9DEE780BE13
:0109CC00002A
:00000001FF
