:10062000120D9A753D057B0A7DFF7FAE120D0112FA
:1006300008E4EF24FE600E14600F146010240370B1
:10064000137F94800A7FD480067FA480027FE41207
:100650000E05B2A71207F6EF14B4100050D19006A1
:100660006C75F003A4C58325F0C5837302069C0254
:1006700006A00206A40206A80206AC0206B1020603
:10068000B60206BB0206C00206C50206CA0206CFB3
:100690000206D40206D90206DE0206E3B2A7808F64
:1006A000B2A7808BB2A78087B2A78083B2A70206C9
:1006B0002FB2A702062FB2A702062FB2A702062F5B
:1006C000B2A702062FB2A702062FB2A702062FB2C8
:1006D000A702062FB2A702062FB2A702062FB2A7C3
:0806E00002062FB2A702062F4B
:050BAC00C10001590029
:100D1D0043878075985053890F438920758BFA75D9
:0B0D2D008DFAC2ABD2ACD2AFD28E2246
:100C6D008B6B8A6C896DAB6BAA6CA96D1202E160FE
:100C7D0016056DE56D7002056C14F91202E1F5991A
:080C8D003099FDC29980DF22BD
:090DE700C2007B007A00795A2257
:03002300020B319C
:090B3100C0E0C0D075D000C00086
:100B3A0020002C309829C298745A2559F8A699E5AC
:100B4A005AB42318E559C394085011745A2559F810
:0F0B5A00E6B42404D200800405598003755900C5
:070B6900D000D0D0D0E03233
:100CBD00D2A07F017E0012000ED2A17F017E001214
:100CCD00000EC2A07F017E0012000EC2A17F017E28
:040CDD000002000E03
:100D3800C2A07F017E0012000ED2A17F017E0012A8
:0B0D4800000ED2A07F017E0002000E12
:020B70008F6E86
:100B7200C2A1E4F56FE56EC4131313540124FF926E
:100B8200A0E56E25E0F56E7F017E0012000ED2A177
:100B92007F017E0012000EC2A17F017E0012000EB4
:090BA200056FE56FC3940840CC17
:010BAB002227
:100C9500D2A0E4F570D2A17F017E0012000EE571AD
:100CA50025E0F571A2A0E4334271C2A10570E5709B
:070CB500C3940840E0AF7199
:010CBC002215
:100D6C00C2A1C2A07F017E0012000ED2A17F017E23
:070D7C000012000EC2A122CB
:100D8300C2A1D2A07F017E0012000ED2A17F017EFC
:070D93000012000EC2A122B4
:100DB100D2A0D2A17F017E0012000EA2A0E433FFD7
:020DC100C2A1CD
:010DC300220D
:100A6F00E4FBFAC2B6C2B5FDEFC41313135401244D
:100A7F00FF92B4EF25E0FFC2B6D2B60DBD08E9D2A2
:100A8F00B6C2B6E4FDEB25E0FBEA33FAD2B6C2B646
:100A9F00A2B7E43342030DBD0CEBD2B5AE02AF03E8
:010AAF002224
:080998008F1A8B1B8A1C891DBC
:1009A000120CBD7FA0120B70120DB1AF1A120B709A
:1009B000120DB1E4F51FE51FC3951E501AAB1BAA1B
:1009C0001CA91D851F827583001202FAFF120B708D
:1009D000120DB1051F80DF120D387F057E00020D5C
:0109E00053C3
:040943008F4E8D4FF7
:10094700120CBD7FA0120B70120DB1AF4E120B70BF
:10095700120DB1120CBD7FA1120B70120DB1E4F58F
:1009670050E550C3954F501C120C9574512550F803
:10097700A6070000E54F1465506005120D6C0000D6
:10098700055080DD120D83120D387B007A007951F6
:01099700223D
:020BE6008F720C
:100BE800120CBD7FA0120B70120DB1AF72120B70F8
:100BF800120DB1120CBD7FA1120B70120DB1120CA7
:0B0C0800958F73120D83120D38AF732F
:010C130022BE
:0A0D5300EF1FAC0670011E4C600E8D
:0C0D5D00753A02753BC7D53BFDD53AFA4C
:030D690080E822FD
:0B000E00EF1FAC0670011E4C70F622C4
:090DF000D288D2A8D2AFD2B222FF
:030003000203C035
:1003C000C0E0C0F0C083C082C0D075D000C000C003
:0D03D00001C002C003C004C005C006C00784
:1003DD0075250030B2030204D77521037522E8207C
:1003ED00B21EE522452160187F017E0012000EE548
:1003FD0022152270021521E522452170E20204D753
:10040D0030B22775210275222630B21EE522452114
:10041D0060187F017E0012000EE522152270021574
:10042D0021E522452170E20204D7752300752400D1
:10043D0074672523F8C000E6C313D000F6752102BA
:10044D0075225820B21DE522452160177F017E00DF
:10045D0012000EE522152270021521E522452170AC
:10046D00E2806775210075221430B21DE522452109
:10047D0060177F0A7E0012000EE52215227002150C
:10048D0021E522452170E28041C3E522940CE5214E
:10049D009400500974672523F8E64480F60524E599
:1004AD0024C39408408A0523E523C3940450030212
:1004BD00043AE56AF46569601175230074672523B4
:0A04CD00F876000523E523B404F2DD
:1004D700D007D006D005D004D003D002D001D00079
:0B04E700D0D0D082D083D0F0D0E03223
:030DFF00AF6922B7
:0F0BB1000165000164000163000166000162003C
:100D010053890F4389108F8B8D8DC28FD28ED2ABB9
:0C0D1100D2AF8F658D648B63853D662238
:03001B00020C4292
:060C4200C0E0C0F0C0D0CC
:100C480085658A85648C0562E5628563F08485F034
:0E0C580062E562D395665004D2A18002C2A16B
:070C6600D0D0D0F0D0E03245
:030E02008F6622D6
:1008E40020B1147F147E00120D5330B1FD7F147EAD
:1008F40000120D537F012220B0147F147E00120DCC
:100904005330B0FD7F147E00120D537F022220B2BB
:10091400147F147E00120D5330B2FD7F147E00123A
:100924000D537F032220B3147F147E00120D533025
:0F093400B3FD7F147E00120D537F04227F00223B
:05000600C2B6C2B522E4
:0209E100A90764
:1009E300E4FB7E007480A803088006CEA2E713CE42
:1009F30013D8F8FFEDF582EF558224FF92B4D2B6F7
:100A0300C2B60BBB08DCD2B5C2B5AF01A807748070
:100A1300088002C313D8FCF4F5807F647E001200C3
:040A23000E7580FFCD
:010A270022AC
:100AF1000000000000000000003E48483E007E4823
:100B01004C32007E525252000040201E2040003CD8
:100B110042423C007C02027C00003C42423C007E9E
:100B210018244200007A7A00000000000000000052
:100BC0000143A402440000C18202410000013E0032
:030BD000014000E1
:100D9A005389F0438901E4F58A758CDCC28DD28CC3
:070DAA00D2A9D2AF0200063E
:03000B000204F2FA
:1004F200C0E0C0F0C083C082C0D075D000C000C0D0
:0D05020001C002C003C004C005C006C00750
:10050F00758A00758CDCE53E75F0648485F03E12CB
:10051F00086FE4FBFA7920784112002612016A8EE7
:10052F00418F42C3E5416480948050167B407D101B
:10053F007F04120774C3E49542F542E49541F541F7
:10054F008009E4FB7D107F04120774AE41AF427C3B
:10055F00007D6412037CAD07E4FB7F05120774AEC8
:10056F0041AF427C007D0A12037C7C007D0A12039E
:10057F007C7B807F06120774AE41AF427C007D0A00
:10058F0012037CE4FB7F07120774E53E75F00F84BE
:10059F00E5F07009AF43120A6F8E448F45AE44AF3A
:1005AF00457C037DE8120327AD07E4FBFF120774B8
:1005BF00AE44AF457C007D641203277C007D0A1298
:1005CF000327E4FB7F01120774AE44AF457C007D27
:1005DF000A1203277C007D0A120327E4FB7F021215
:1005EF000774AE44AF457C007D0A120327E4FB7FFE
:0605FF0003120774053E23
:10060500D007D006D005D004D003D002D001D00049
:0B061500D0D0D082D083D0F0D0E032F3
:030E05008F4322F6
:05001E00A20192022284
:030E0800A2022221
:100BD30010080102030405060708090A0B0C0D0E91
:020BE3000F10F1
:1007F60075900FE590640F606D7F147E00120D53A7
:10080600AF90EF24F5601024FE60111460132407E6
:100816007012E4F519800D751901800875190280AA
:10082600037519037590F0AF90EF2450601124E022
:10083600601224F0601324707012E4F518800D75B0
:10084600180180087518028003751803E590B4F046
:10085600FB7F147E00120D53E51825E025E02408E1
:080866002519F8E6FF227F00CE
:01086E002267
:100DC400C2B77F4B7E0012000ED2B77F027E0002B4
:020DD400000E0F
:100A2800E4F52D30B712E52DC39414500B052D7F36
:100A3800017E0012000E80EBE52DC3941440037F65
:100A48000122E4F52D20B712E52DC39414500B05AF
:100A58002D7F017E0012000E80EBE52DC39414401B
:060A6800037F01227F0064
:010A6E002265
:060DF900120DC4020A28DD
:020AB0008F2D88
:100AB200E4F52E7E007401A82E088005C333CE33E0
:100AC200CED8F9FFEF552D600FC2B70000D2B77F25
:100AD200067E0012000E800DC2B77F067E00120055
:0E0AE2000ED2B70000052EE52EC3940840C5C5
:010AF00022E3
:100CE100E4F574C2B70000D2B7000030B7057574DF
:0F0CF100018003E4F5747F057E0012000EAF74DE
:010D000022D0
:100C1400E4F52EF52FF52DE52FC313F52FC2B700FC
:100C240000D2B7000030B703432F807F057E001247
:0D0C3400000E052DE52DC3940840DCAF2F08
:010C41002290
:10086F00120DF97FCC120AB07F44120AB0120DF9A3
:10087F007FCC120AB07FBE120AB0120C148F261250
:10088F000C14AD07EDFEE526FBEEF527EBF528ED95
:10089F0054F8FFBFF81CE528F4FFE527F4FEEF241A
:1008AF0001FDE43EFCE4120131E4FBFA798078BDEE
:1008BF00800FAC27AD28E4120131E4FBFA79807880
:1008CF003D1200268F2C8E2B8D2A8C29AF2CAE2B10
:0408DF00AD2AAC2969
:0108E30022F2
:100DD6003F065B4F666D7D077F6F777C395E797165
:010DE600000C
:060774008F268D278B2863
:10077A0078297C007D007BFF7A0D79D67E007F1177
:10078A001202BBE526B40800504D90079BF82828B2
:10079A00730207B30207B70207BB0207BF0207C308
:1007AA000207CB0207D30207DBD2A4800ED2A480B1
:1007BA0012D2A48016D2A4801AC2A4D2A3D2A28032
:1007CA0016C2A4D2A3C2A2800EC2A4C2A3D2A2807D
:1007DA0006C2A4C2A3C2A274292527F8E64528F5B1
:0B07EA00807F647E0012000EE4F580AA
:0107F50022E1
:10002600EC4D6011E8497017ED33EC3304600DE4D4
:10003600FCFFFEFD22E933E8330470F80201D61214
:1000460001A158046009E4CC248150062850090215
:1000560001E02840030201DDC0E0EB4A7044B980AC
:1000660006D0E0FB0201CCEF4E701CBD8008EBFF12
:10007600EAFEE9FD80EBE98DF0A4FEE5F002010F52
:10008600E9CDF9EAFEEBFFEF89F0A4FCE5F0CE89B5
:10009600F0A42EFFE435F0CD89F0A42DFEE435F072
:1000A6008067EF4E7005BD80D780C3EF8BF0A4ACA0
:1000B600F0EE8BF0A42CFCE435F0F8EF8AF0A42CDB
:1000C600E5F038FCE433CB8DF0A42CFCE5F03BF8EE
:1000D600EE8AF0A42CFCE5F038F8E433CF89F0A4DE
:1000E6002CFCE5F038CF3400CE89F0A42FFFE5F0E4
:1000F6003EFEE433C98DF0A42EFEE5F039CD8AF03C
:10010600A42FFFE5F03EFEE43DFD33D0E0FB5007B3
:100116000BBB000F0201E0EC2CFCEF33FFEE33FECD
:06012600ED33FD0201B8FB
:10012C0075F020800E75F010800575F0087D007E4E
:10013C00007F003392D530D5031203B2EC3340105C
:10014C00EF33FFEE33FEED33FDEC33FCD5F0ED2257
:0E015C00E5F0247EA2D513CC92E7CDCEFF2293
:10016A00EDD2E7CD33EC3392D524814006E4FFFE8D
:10017A00FDFC22FCE4CFCECDCC24E0501174FF80EC
:10018A00EDC3CC13CCCD13CDCE13CECF13CF047089
:07019A00F030D5DE0203B2D4
:1001A100E9D2E7C933E833F892D5EDD2E7CD33ECA4
:0701B10033FC5002B2D5221D
:1001B800EC30E7100FBF000C0EBE00080DBD0004A8
:1001C8000BEB6014A2D5EB13FCED92E7FD2274FF54
:1001D800FCFDFEFF22E480F8A2D574FF13FC7D80AD
:0301E800E480EFC1
:030000000206E80D
:0C06E800787FE4F6D8FD75817402072FBE
:1001EB00E709F608DFFA8046E709F208DFFA803EF6
:1001FB0088828C83E709F0A3DFFA8032E309F608E3
:10020B00DFFA8078E309F208DFFA807088828C834A
:10021B00E309F0A3DFFA806489828A83E0A3F608FE
:10022B00DFFA805889828A83E0A3F208DFFA804CD8
:10023B0080D280FA80C680D4806980F280338010AF
:10024B0080A680EA809A80A880DA80E280CA803318
:10025B0089828A83ECFAE493A3C8C582C8CCC58390
:10026B00CCF0A3C8C582C8CCC583CCDFE9DEE78060
:10027B000D89828A83E493A3F608DFF9ECFAA9F0DF
:10028B00EDFB2289828A83ECFAE0A3C8C582C8CC35
:10029B00C583CCF0A3C8C582C8CCC583CCDFEADE4E
:1002AB00E880DB89828A83E493A3F208DFF980CCB0
:1002BB0088F0EF60010E4E60C388F0ED2402B404A9
:1002CB000050B9F582EB2402B4040050AF23234550
:0602DB00822390023B7338
:1002E100BB010689828A83E0225002E722BBFE021B
:0902F100E32289828A83E493224E
:1002FA00BB010CE58229F582E5833AF583E02250B9
:10030A0006E92582F8E622BBFE06E92582F8E22202
:0D031A00E58229F582E5833AF583E493221C
:10032700BC000BBE0029EF8DF084FFADF022E4CCBA
:10033700F875F008EF2FFFEE33FEEC33FCEE9DEC83
:10034700984005FCEE9DFE0FD5F0E9E4CEFD22EDC9
:10035700F8F5F0EE8420D21CFEADF075F008EF2F13
:10036700FFED33FD4007985006D5F0F222C398FD04
:050377000FD5F0EA22A1
:10037C00C2D5EC30E709B2D5E4C39DFDE49CFCEE9C
:10038C0030E715B2D5E4C39FFFE49EFE120327C3EA
:10039C00E49DFDE49CFC800312032730D507C3E4E5
:0603AC009FFFE49EFE220B
:0E03B200C3E49FFFE49EFEE49DFDE49CFC225C
:1006F400020620E493A3F8E493A34003F68001F2F6
:1007040008DFF48029E493A3F85407240CC8C33306
:10071400C4540F4420C8834004F456800146F6DFD5
:10072400E4800B0102040810204080900BACE47EAE
:10073400019360BCA3FF543F30E509541FFEE493CA
:10074400A360010ECF54C025E060A840B8E493A391
:10075400FAE493A3F8E493A3C8C582C8CAC583CABC
:10076400F0A3C8C582C8CAC583CADFE9DEE780BE74
:010BE500000F
:00000001FF
