:10061C00120D4F753F057B0A7DFF7FAE120CFD124C
:10062C0008E0EF24FE600E14600F146010240370B9
:10063C00137F94800A7FD480067FA480027FE4120B
:10064C000E04B2A71207F2EF14B4100050D19006AA
:10065C006875F003A4C58325F0C583730206980260
:10066C00069C0206A00206A40206A80206AD02061B
:10067C00B20206B70206BC0206C10206C60206CBCF
:10068C000206D00206D50206DA0206DFB2A7808F78
:10069C00B2A7808BB2A78087B2A78083B2A70206CD
:1006AC002BB2A702062BB2A702062BB2A702062B6F
:1006BC00B2A702062BB2A702062BB2A702062BB2D8
:1006CC00A702062BB2A702062BB2A702062BB2A7D3
:0806DC0002062BB2A702062B57
:050BA800C100015B002B
:100D190043878075985053890F438920758BFA75DD
:0B0D29008DFAC2ABD2ACD2AFD28E224A
:100C69008B6D8A6E896FAB6DAA6EA96F1202E160F6
:100C790016056FE56F7002056E14F91202E1F59918
:080C89003099FDC29980DF22C1
:090DE600C2007B007A00795C2256
:03002300020B2DA0
:090B2D00C0E0C0D075D000C0008A
:100B360020002C309829C298745C255BF8A699E5AC
:100B46005CB42318E55BC394085011745C255BF80C
:0F0B5600E6B42404D2008004055B8003755B00C5
:070B6500D000D0D0D0E03237
:100CB900D2A07F017E0012000ED2A17F017E001218
:100CC900000EC2A07F017E0012000EC2A17F017E2C
:040CD9000002000E07
:100D3400C2A07F017E0012000ED2A17F017E0012AC
:0B0D4400000ED2A07F017E0002000E16
:020B6C008F7088
:100B6E00C2A1E4F571E570C4131313540124FF926E
:100B7E00A0E57025E0F5707F017E0012000ED2A177
:100B8E007F017E0012000EC2A17F017E0012000EB8
:090B9E000571E571C3940840CC17
:010BA700222B
:100C9100D2A0E4F572D2A17F017E0012000EE573AD
:100CA10025E0F573A2A0E4334273C2A10572E57297
:070CB100C3940840E0AF739B
:010CB8002219
:100D8200C2A1C2A07F017E0012000ED2A17F017E0D
:070D92000012000EC2A122B5
:100D9900C2A1D2A07F017E0012000ED2A17F017EE6
:070DA9000012000EC2A1229E
:100DB000D2A0D2A17F017E0012000EA2A0E433FFD8
:020DC000C2A1CE
:010DC200220E
:100A6B00E4FBFAC2B6C2B5FDEFC413131354012451
:100A7B00FF92B4EF25E0FFC2B6D2B60DBD08E9D2A6
:100A8B00B6C2B6E4FDEB25E0FBEA33FAD2B6C2B64A
:100A9B00A2B7E43342030DBD0CEBD2B5AE02AF03EC
:010AAB002228
:080994008F1A8B1B8A1C891DC0
:10099C00120CB97FA0120B6C120DB0AF1A120B6CAB
:1009AC00120DB0E4F51FE51FC3951E501AAB1BAA20
:1009BC001CA91D851F827583001202FAFF120B6C95
:1009CC00120DB0051F80DF120D347F057E00020D65
:0109DC0069B1
:04093F008F508D51F7
:10094300120CB97FA0120B6C120DB0AF50120B6CCE
:10095300120DB0120CB97FA1120B6C120DB0E4F59D
:1009630052E552C39551501C120C9174532552F801
:10097300A6070000E5511465526005120D820000C0
:10098300055280DD120D99120D347B007A007953E4
:010993002241
:020BE2008F740E
:100BE400120CB97FA0120B6C120DB0AF74120B6C07
:100BF400120DB0120CB97FA1120B6C120DB0120CB5
:0B0C0400918F75120D99120D34AF7521
:010C0F0022C2
:0A0D6900EF1FAC0670011E4C600E77
:0C0D7300753C02753DC7D53DFDD53CFA2E
:030D7F0080E822E7
:0B000E00EF1FAC0670011E4C70F622C4
:090DEF00D288D2A8D2AFD2B22200
:030003000203C035
:1003C000C0E0C0F0C083C082C0D075D000C000C003
:0D03D00001C002C003C004C005C006C00784
:1003DD0075250030B2030204D77521037522E8207C
:1003ED00B21EE522452160187F017E0012000EE548
:1003FD0022152270021521E522452170E20204D753
:10040D0030B22775210275222630B21EE522452114
:10041D0060187F017E0012000EE522152270021574
:10042D0021E522452170E20204D7752300752400D1
:10043D0074692523F8C000E6C313D000F6752102B8
:10044D0075225820B21DE522452160177F017E00DF
:10045D0012000EE522152270021521E522452170AC
:10046D00E2806775210075221430B21DE522452109
:10047D0060177F0A7E0012000EE52215227002150C
:10048D0021E522452170E28041C3E522940CE5214E
:10049D009400500974692523F8E64480F60524E597
:1004AD0024C39408408A0523E523C3940450030212
:1004BD00043AE56CF4656B601175230074692523AE
:0A04CD00F876000523E523B404F2DD
:1004D700D007D006D005D004D003D002D001D00079
:0B04E700D0D0D082D083D0F0D0E03223
:030DFE00AF6B22B6
:0F0BAD0001670001660001650001680001640036
:100CFD0053890F4389108F8B8D8DC28FD28ED2ABBE
:0C0D0D00D2AF8F678D668B65853F682232
:03001B00020C3E96
:060C3E00C0E0C0F0C0D0D0
:100C440085678A85668C0564E5648565F08485F02E
:0E0C540064E564D395685004D2A18002C2A169
:070C6200D0D0D0F0D0E03249
:030E01008F6822D5
:1008E00020B1147F147E00120D6930B1FD7F147E9B
:1008F00000120D697F012220B0147F147E00120DBA
:100900006930B0FD7F147E00120D697F022220B293
:10091000147F147E00120D6930B2FD7F147E001228
:100920000D697F032220B3147F147E00120D6930FD
:0F093000B3FD7F147E00120D697F04227F002229
:05000600C2B6C2B522E4
:0209DD00A90768
:1009DF00E4FB7E007480A803088006CEA2E713CE46
:1009EF0013D8F8FFEDF582EF558224FF92B4D2B6FB
:1009FF00C2B60BBB08DCD2B5C2B5AF01A807748075
:100A0F00088002C313D8FCF4F5807F647E001200C7
:040A1F000E7580FFD1
:010A230022B0
:100AED000000000000000000003E48483E007E4827
:100AFD004C32007E525252000040201E2040003CDD
:100B0D0042423C007C02027C00003C42423C007EA2
:100B1D0018244200007A7A00000000000000000056
:100BBC000145A402460000C182024300000140002E
:030BCC00014200E3
:100D4F005389F0438901E4F58A758CDCC28DD28C0E
:0A0D5F00D2A9D2AF120006020DF86F
:03000B000204F2FA
:1004F200C0E0C0F0C083C082C0D075D000C000C0D0
:0D05020001C002C003C004C005C006C00750
:10050F00758A00758CDC0540E54075F0648485F0D4
:10051F004012086BE4FBFA79207841120026120191
:10052F006A8E438F44C3E5436480948050167B40AA
:10053F007D107F04120770C3E49544F544E495439E
:10054F00F5438009E4FB7D107F04120770AE43AFC3
:10055F00447C007D6412037CAD07E4FB7F0512072A
:10056F0070AE43AF447C007D0A12037C7C007D0A91
:10057F0012037C7B807F06120770AE43AF447C0072
:10058F007D0A12037CE4FB7F07120770E54075F0CC
:10059F000F84E5F0705CAF45120A6B8E468F477C77
:1005AF00037DE8120327AD07E4FBFF120770AE4689
:1005BF00AF477C007D641203277C007D0A1203275E
:1005CF00E4FB7F01120770AE46AF477C007D0A1235
:1005DF0003277C007D0A120327E4FB7F02120770BA
:1005EF00AE46AF477C007D0A120327E4FB7F031260
:0205FF00077083
:10060100D007D006D005D004D003D002D001D0004D
:0B061100D0D0D082D083D0F0D0E032F7
:030E04008F4522F5
:05001E00A20192022284
:030E0700A2022222
:100BCF0010080102030405060708090A0B0C0D0E95
:020BDF000F10F5
:1007F20075900FE590640F606D7F147E00120D6995
:10080200AF90EF24F5601024FE60111460132407EA
:100812007012E4F519800D751901800875190280AE
:10082200037519037590F0AF90EF2450601124E026
:10083200601224F0601324707012E4F518800D75B4
:10084200180180087518028003751803E590B4F04A
:10085200FB7F147E00120D69E51825E025E02408CF
:080862002519F8E6FF227F00D2
:01086A00226B
:100DC300C2B77F4B7E0012000ED2B77F027E0002B5
:020DD300000E10
:100A2400E4F53C30B712E53CC39414500B053C7F0D
:100A3400017E0012000E80EBE53CC3941440037F5A
:100A44000122E4F53C20B712E53CC39414500B0595
:100A54003C7F017E0012000E80EBE53CC394144001
:060A6400037F01227F0068
:010A6A002269
:060DF800120DC3020A24E3
:020AAC008F2D8C
:100AAE00E4F52E7E007401A82E088005C333CE33E4
:100ABE00CED8F9FFEF552D600FC2B70000D2B77F29
:100ACE00067E0012000E800DC2B77F067E00120059
:0E0ADE000ED2B70000052EE52EC3940840C5C9
:010AEC0022E7
:100CDD00E4F576C2B70000D2B7000030B7057576DF
:0F0CED00018003E4F5767F057E0012000EAF76DE
:010CFC0022D5
:100C1000E4F52EF52FF52DE52FC313F52FC2B70000
:100C200000D2B7000030B703432F807F057E00124B
:0D0C3000000E052DE52DC3940840DCAF2F0C
:010C3D002294
:10086B00120DF87FCC120AAC7F44120AAC120DF8B1
:10087B007FCC120AAC7FBE120AAC120C108F261260
:10088B000C10AD07EDFEE526FBEEF527EBF528ED9D
:10089B0054F8FFBFF81CE528F4FFE527F4FEEF241E
:1008AB0001FDE43EFCE4120131E4FBFA798078BDF2
:1008BB00800FAC27AD28E4120131E4FBFA79807884
:1008CB003D1200268F2C8E2B8D2A8C29AF2CAE2B14
:0408DB00AD2AAC296D
:0108DF0022F6
:100DD5003F065B4F666D7D077F6F777C395E797166
:010DE500000D
:060770008F268D278B2867
:1007760078297C007D007BFF7A0D79D57E007F117C
:100786001202BBE526B40800504D900797F82828BA
:10079600730207AF0207B30207B70207BB0207BF20
:1007A6000207C70207CF0207D7D2A4800ED2A480C1
:1007B60012D2A48016D2A4801AC2A4D2A3D2A28036
:1007C60016C2A4D2A3C2A2800EC2A4C2A3D2A28081
:1007D60006C2A4C2A3C2A274292527F8E64528F5B5
:0B07E600807F017E00120D69E4F580A9
:0107F10022E5
:10002600EC4D6011E8497017ED33EC3304600DE4D4
:10003600FCFFFEFD22E933E8330470F80201D61214
:1000460001A158046009E4CC248150062850090215
:1000560001E02840030201DDC0E0EB4A7044B980AC
:1000660006D0E0FB0201CCEF4E701CBD8008EBFF12
:10007600EAFEE9FD80EBE98DF0A4FEE5F002010F52
:10008600E9CDF9EAFEEBFFEF89F0A4FCE5F0CE89B5
:10009600F0A42EFFE435F0CD89F0A42DFEE435F072
:1000A6008067EF4E7005BD80D780C3EF8BF0A4ACA0
:1000B600F0EE8BF0A42CFCE435F0F8EF8AF0A42CDB
:1000C600E5F038FCE433CB8DF0A42CFCE5F03BF8EE
:1000D600EE8AF0A42CFCE5F038F8E433CF89F0A4DE
:1000E6002CFCE5F038CF3400CE89F0A42FFFE5F0E4
:1000F6003EFEE433C98DF0A42EFEE5F039CD8AF03C
:10010600A42FFFE5F03EFEE43DFD33D0E0FB5007B3
:100116000BBB000F0201E0EC2CFCEF33FFEE33FECD
:06012600ED33FD0201B8FB
:10012C0075F020800E75F010800575F0087D007E4E
:10013C00007F003392D530D5031203B2EC3340105C
:10014C00EF33FFEE33FEED33FDEC33FCD5F0ED2257
:0E015C00E5F0247EA2D513CC92E7CDCEFF2293
:10016A00EDD2E7CD33EC3392D524814006E4FFFE8D
:10017A00FDFC22FCE4CFCECDCC24E0501174FF80EC
:10018A00EDC3CC13CCCD13CDCE13CECF13CF047089
:07019A00F030D5DE0203B2D4
:1001A100E9D2E7C933E833F892D5EDD2E7CD33ECA4
:0701B10033FC5002B2D5221D
:1001B800EC30E7100FBF000C0EBE00080DBD0004A8
:1001C8000BEB6014A2D5EB13FCED92E7FD2274FF54
:1001D800FCFDFEFF22E480F8A2D574FF13FC7D80AD
:0301E800E480EFC1
:030000000206E411
:0C06E400787FE4F6D8FD75817602072BC4
:1001EB00E709F608DFFA8046E709F208DFFA803EF6
:1001FB0088828C83E709F0A3DFFA8032E309F608E3
:10020B00DFFA8078E309F208DFFA807088828C834A
:10021B00E309F0A3DFFA806489828A83E0A3F608FE
:10022B00DFFA805889828A83E0A3F208DFFA804CD8
:10023B0080D280FA80C680D4806980F280338010AF
:10024B0080A680EA809A80A880DA80E280CA803318
:10025B0089828A83ECFAE493A3C8C582C8CCC58390
:10026B00CCF0A3C8C582C8CCC583CCDFE9DEE78060
:10027B000D89828A83E493A3F608DFF9ECFAA9F0DF
:10028B00EDFB2289828A83ECFAE0A3C8C582C8CC35
:10029B00C583CCF0A3C8C582C8CCC583CCDFEADE4E
:1002AB00E880DB89828A83E493A3F208DFF980CCB0
:1002BB0088F0EF60010E4E60C388F0ED2402B404A9
:1002CB000050B9F582EB2402B4040050AF23234550
:0602DB00822390023B7338
:1002E100BB010689828A83E0225002E722BBFE021B
:0902F100E32289828A83E493224E
:1002FA00BB010CE58229F582E5833AF583E02250B9
:10030A0006E92582F8E622BBFE06E92582F8E22202
:0D031A00E58229F582E5833AF583E493221C
:10032700BC000BBE0029EF8DF084FFADF022E4CCBA
:10033700F875F008EF2FFFEE33FEEC33FCEE9DEC83
:10034700984005FCEE9DFE0FD5F0E9E4CEFD22EDC9
:10035700F8F5F0EE8420D21CFEADF075F008EF2F13
:10036700FFED33FD4007985006D5F0F222C398FD04
:050377000FD5F0EA22A1
:10037C00C2D5EC30E709B2D5E4C39DFDE49CFCEE9C
:10038C0030E715B2D5E4C39FFFE49EFE120327C3EA
:10039C00E49DFDE49CFC800312032730D507C3E4E5
:0603AC009FFFE49EFE220B
:0E03B200C3E49FFFE49EFEE49DFDE49CFC225C
:1006F00002061CE493A3F8E493A34003F68001F2FE
:1007000008DFF48029E493A3F85407240CC8C3330A
:10071000C4540F4420C8834004F456800146F6DFD9
:10072000E4800B0102040810204080900BA8E47EB6
:10073000019360BCA3FF543F30E509541FFEE493CE
:10074000A360010ECF54C025E060A840B8E493A395
:10075000FAE493A3F8E493A3C8C582C8CAC583CAC0
:10076000F0A3C8C582C8CAC583CADFE9DEE780BE78
:010BE1000013
:00000001FF
