:100319001208731205E1EF24FE600E14600F1460D9
:10032900102403700EB2A7800AB2A78006B2A78074
:1003390002B2A71204F3EF14B4100050D69003547C
:1003490075F003A4C58325F0C583730203840203F2
:100359008802038C02039002039402039E0203A302
:100369000203A80203AD0203B20203B70203BC02EF
:1003790003C10203C60203CB0203D07F01800E7FB3
:1003890002800A7F0380067F0480027F051208C469
:10039900B2A702031CB2A702031CB2A702031CB234
:1003A900A702031CB2A702031CB2A702031CB2A72F
:1003B90002031CB2A702031CB2A702031CB2A702C4
:0C03C900031CB2A702031CB2A702031C15
:1006CE00E4FBFAC2B6C2B5FDEFC4131313540124F2
:1006DE00FF92B4EF25E0FFC2B6D2B60DBD08E9D247
:1006EE00B6C2B6E4FDEB25E0FBEA33FAD2B6C2B6EB
:1006FE00A2B7E43342030DBD0CEBD2B5AE02AF038D
:01070E0022C8
:0A085A00EF1FAC0670011E4C600E8B
:0C086400754902754AC7D54AFDD549FA0E
:0308700080E822FB
:0B089A00EF1FAC0670011E4C70F62230
:1005E10020B1147F147E0012085A30B1FD7F147EB1
:1005F1000012085A7F012220B0147F147E001208D5
:100601005A30B0FD7F147E0012085A7F022220B2B8
:10061100147F147E0012085A30B2FD7F147E00123E
:10062100085A7F032220B3147F147E0012085A3027
:0F063100B3FD7F147E0012085A7F04227F00223F
:0508B400C2B6C2B5222E
:02064000A90708
:10064200E4FB7E007480A803088006CEA2E713CEE6
:1006520013D8F8FFEDF582EF558224FF92B4D2B69B
:10066200C2B60BBB08DCD2B5C2B5AF01A807748015
:10067200088002C313D8FCF4F5807F647E00120860
:040682009A7580FFE6
:010686002251
:100750000000000000000000003E48483E007E48C7
:100760004C32007E525252000040201E2040003C7D
:1007700042423C007C02027C00003C42423C007E43
:1007800018244200007A7A000000000000000000F7
:090790000132A402330000C18112
:10083E005389F0438901E4F58A758CDCC28DD28C24
:0C084E00D2A9D2AF753C76F5390208B48F
:030018008F322202
:0508B900A200920122E3
:0308BE00A2012272
:1007990010080102030405060708090A0B0C0D0ECF
:0207A9000F102F
:1004F30075900FE590640F606D7F147E0012085AAB
:10050300AF90EF24F5601024FE60111460132407EC
:100513007012E4F519800D751901800875190280B0
:10052300037519037590F0AF90EF2450601124E028
:10053300601224F0601324707012E4F518800D75B6
:10054300180180087518028003751803E590B4F04C
:10055300FB7F147E0012085AE51825E025E02408E5
:080563002519F8E6FF227F00D4
:01056B00226D
:10000600C2B77F4B7E0012089AD2B77F027E0002EB
:02001600089A46
:10068700E4F51F30B712E51FC39414500B051F7F05
:10069700017E0012089A80EBE51FC3941440037F84
:1006A7000122E4F51F20B712E51FC39414500B0570
:1006B7001F7F017E0012089A80EBE51FC394144048
:0606C700037F01227F0009
:0106CD00220A
:0608AE001200060206879D
:02070F008F5207
:10071100E4F5537E007401A853088005C333CE333A
:10072100CED8F9FFEF5552600FC2B70000D2B77FA4
:10073100067E0012089A800DC2B77F067E0012085D
:0E0741009AD2B700000553E553C3940840C593
:01074F002287
:10081E00E4F556C2B70000D2B7000030B7057556E2
:0F082E00018003E4F5567F057E0012089AAF564D
:01083D002298
:1007C500E4F550F551F54FE551C313F551C2B700A6
:1007D50000D2B7000030B7034351807F057E001279
:0D07E500089A054FE54FC3940840DCAF5162
:0107F20022E4
:10056C001208AE7FCC12070F7F4412070F1208AE91
:10057C007FCC12070F7FBE12070F1207C58F3D12DB
:10058C0007C5AD07EDFEE53DFBEEF53EEBF53FEDAA
:10059C0054F8FFBFF81CE53FF4FFE53EF4FEEF24F2
:1005AC0001FDE43EFCE4120129E4FBFA798078BDFC
:1005BC00800FAC3EAD3FE4120129E4FBFA79807860
:1005CC003D12001E8F438E428D418C40AF43AE4294
:0405DC00AD41AC4041
:0105E00022F8
:1007AB0011213F065B4F666D7D077F6F777C395E4E
:0307BB0079710051
:10088A00EFC39411500774212FF8E6FF227F00224C
:0603D5008B1A8A1B891C33
:1003DB00E4F51DED14F51EF51DE51DC39408507BCA
:1003EB00E51DB40800504D9003F9F828287302045A
:1003FB001102041502041902041D0204210204292E
:10040B00020431020439D2A4800ED2A48012D2A4E9
:10041B008016D2A4801AC2A4D2A3D2A28016C2A4E0
:10042B00D2A3C2A2800EC2A4C2A3D2A28006C2A42F
:10043B00C2A3C2A2C3E51D951EFFE49400AB1AAA8A
:10044B001BA91C8F82F5831201ACF5807F647E00A3
:0B045B0012089AE4F580051D0203E47E
:010466002273
:0908A500D288D2A8D2AFD2B2224F
:030003000201E710
:1001E700C0E0C0F0C083C082C0D075D000C000C0DE
:0D01F70001C002C003C004C005C006C0075F
:1002040075480030B2030202FE7544037545E820C8
:10021400B21EE545454460187F017E0012089AE548
:1002240045154570021544E545454470E20202FE59
:1002340030B22775440275452630B21EE545454463
:1002440060187F017E0012089AE545154570021575
:1002540044E545454470E20202FE754600754700D8
:10026400744B2546F8C000E6C313D000F67544026B
:1002740075455820B21DE545454460177F017E0051
:1002840012089AE545154570021544E54545447044
:10029400E2806775440075451430B21DE545454458
:1002A40060177F0A7E0012089AE54515457002150D
:1002B40044E545454470E28041C3E545940CE5447A
:1002C40094005009744B2546F8E64480F60547E54A
:1002D40047C39408408A0546E546C3940450030284
:1002E4000261E54EF4654D6011754600744B254678
:0A02F400F876000546E546B404F272
:1002FE00D007D006D005D004D003D002D001D00054
:0B030E00D0D0D082D083D0F0D0E032FD
:0308C100AF4D2216
:0607BE0001550101540089
:1008730053890F438910758B33758DFEC28FD28ECA
:07088300D2ABD2AFD2A122DB
:03001B000207F3E6
:0607F300C0E0C0F0C0D020
:1007F900758B33758DFE0554E55475F0288485F0A5
:0E08090054E554C395555004D2A18002C2A1FB
:07081700D0D0D0F0D0E03298
:0308C4008F55222B
:10001E00EC4D6011E8497017ED33EC3304600DE4DC
:10002E00FCFFFEFD22E933E8330470F8020197125B
:10003E00016258046009E4CC24815006285009025C
:10004E0001A128400302019EC0E0EB4A7044B98032
:10005E0006D0E0FB02018DEF4E701CBD8008EBFF59
:10006E00EAFEE9FD80EBE98DF0A4FEE5F002010762
:10007E00E9CDF9EAFEEBFFEF89F0A4FCE5F0CE89BD
:10008E00F0A42EFFE435F0CD89F0A42DFEE435F07A
:10009E008067EF4E7005BD80D780C3EF8BF0A4ACA8
:1000AE00F0EE8BF0A42CFCE435F0F8EF8AF0A42CE3
:1000BE00E5F038FCE433CB8DF0A42CFCE5F03BF8F6
:1000CE00EE8AF0A42CFCE5F038F8E433CF89F0A4E6
:1000DE002CFCE5F038CF3400CE89F0A42FFFE5F0EC
:1000EE003EFEE433C98DF0A42EFEE5F039CD8AF044
:1000FE00A42FFFE5F03EFEE43DFD33D0E0FB5007BC
:10010E000BBB000F0201A1EC2CFCEF33FFEE33FE14
:06011E00ED33FD02017942
:1001240075F020800E75F010800575F0087D007E56
:10013400007F003392D530D5031201D9EC3340103F
:10014400EF33FFEE33FEED33FDEC33FCD5F0ED225F
:0E015400E5F0247EA2D513CC92E7CDCEFF229B
:10016200E9D2E7C933E833F892D5EDD2E7CD33ECE3
:0701720033FC5002B2D5225C
:10017900EC30E7100FBF000C0EBE00080DBD0004E7
:100189000BEB6014A2D5EB13FCED92E7FD2274FF93
:10019900FCFDFEFF22E480F8A2D574FF13FC7D80EC
:0301A900E480EF00
:0300000002046790
:0C046700787FE4F6D8FD7581560204AEE3
:1001AC00BB010CE58229F582E5833AF583E0225008
:1001BC0006E92582F8E622BBFE06E92582F8E22252
:0D01CC00E58229F582E5833AF583E493226C
:0E01D900C3E49FFFE49EFEE49DFDE49CFC2237
:10047300020319E493A3F8E493A34003F68001F283
:1004830008DFF48029E493A3F85407240CC8C3338A
:10049300C4540F4420C8834004F456800146F6DF59
:1004A300E4800B0102040810204080900790E47E52
:1004B300019360BCA3FF543F30E509541FFEE4934E
:1004C300A360010ECF54C025E060A840B8E493A315
:1004D300FAE493A3F8E493A3C8C582C8CAC583CA40
:1004E300F0A3C8C582C8CAC583CADFE9DEE780BEF8
:0107C4000034
:00000001FF
