:100261001209A01208DB754E057B0A7DFF7FAE12D5
:1002710008BF120566EF24FE600E14600F146013B0
:100281002403701A7F9480067FD480027FA4120910
:10029100AF800B1209B2B3920212001EB2A7120470
:1002A100EDEF14B4100050CA9002B775F003A4C565
:1002B1008325F0C583730202E70202EB0202EF021B
:1002C10002F30202F80202FD020302020307020323
:1002D1000C02031102031602031B02032002032571
:1002E10002032A02032FB2A78088B2A78084B2A793
:1002F1008080B2A7020273B2A7020273B2A7020200
:1003010073B2A7020273B2A7020273B2A702027309
:10031100B2A7020273B2A7020273B2A7020273B2BA
:10032100A7020273B2A7020273B2A7020273B2A7B5
:0303310002027352
:05061A00C100015A00BF
:1008F70043878075985053890F438920758BFA7504
:0B0907008DFAC2ABD2ACD2AFD28E2270
:10084B008B6C8A6D896EAB6CAA6DA96E12033460CA
:10085B0016056EE56E7002056D14F9120334F599E9
:08086B003099FDC29980DF22E3
:09099700C2007B007A00795B22AA
:030023000207775A
:09077700C0E0C0D075D000C00044
:1007800020002C309829C298745B255AF8A699E568
:100790005BB42318E55AC394085011745B255AF8CA
:0F07A000E6B42404D2008004055A8003755A0081
:0707AF00D000D0D0D0E032F1
:10089B00D2A07F017E0012000ED2A17F017E00123A
:1008AB00000EC2A07F017E0012000EC2A17F017E4E
:0408BB000002000E29
:10091200C2A07F017E0012000ED2A17F017E0012D2
:0B092200000ED2A07F017E0002000E3C
:0207B6008F6F43
:1007B800C2A1E4F570E56FC4131313540124FF922A
:1007C800A0E56F25E0F56F7F017E0012000ED2A133
:1007D8007F017E0012000EC2A17F017E0012000E72
:0907E8000570E570C3940840CCD3
:0107F10022E5
:10087300D2A0E4F571D2A17F017E0012000EE572D1
:1008830025E0F572A2A0E4334272C2A10571E571BD
:07089300C3940840E0AF72BE
:01089A00223B
:10094600C2A1C2A07F017E0012000ED2A17F017E4D
:070956000012000EC2A122F5
:10095D00C2A1D2A07F017E0012000ED2A17F017E26
:07096D000012000EC2A122DE
:10097400D2A0D2A17F017E0012000EA2A0E433FF18
:02098400C2A10E
:01098600224E
:1006F600E4FBFAC2B6C2B5FDEFC4131313540124CA
:10070600FF92B4EF25E0FFC2B6D2B60DBD08E9D21E
:10071600B6C2B6E4FDEB25E0FBEA33FAD2B6C2B6C2
:10072600A2B7E43342030DBD0CEBD2B5AE02AF0364
:0107360022A0
:080666008F1A8B1B8A1C891DF1
:10066E0012089B7FA01207B6120974AF1A1207B6B2
:10067E00120974E4F51FE51FC3951E501AAB1BAA91
:10068E001CA91D851F8275830012034DFF1207B62C
:10069E00120974051F80DF1209127F057E00020900
:0106AE002D1E
:0405C5008F4F8D5077
:1005C90012089B7FA01207B6120974AF4F1207B623
:1005D90012097412089B7FA11207B6120974E4F577
:1005E90051E551C39550501C12087374522551F8A6
:1005F900A6070000E5501465516005120946000080
:10060900055180DD12095D1209127B007A007952C9
:0106190022BE
:0207F2008F7303
:1007F40012089B7FA01207B6120974AF731207B6D2
:1008040012097412089B7FA11207B6120974120808
:0B081400738F7412095D120912AF749B
:01081F0022B6
:0A092D00EF1FAC0670011E4C600EB7
:0C093700754B02754CC7D54CFDD54BFA32
:0309430080E82227
:0B000E00EF1FAC0670011E4C70F622C4
:0909A000D288D2A8D2AFD2B22253
:03000300020026D2
:10002600C0E0C0F0C083C082C0D075D000C000C0A0
:0D00360001C002C003C004C005C006C00721
:1000430075450030B20302013D7541037542E82056
:10005300B21EE542454160187F017E0012000EE5A5
:1000630042154270021541E542454170E202013DED
:1000730030B22775410275422630B21EE542454132
:1000830060187F017E0012000EE5421542700215D2
:1000930041E542454170E202013D7543007544006C
:1000A30074682543F8C000E6C313D000F675410217
:1000B30075425820B21DE542454160177F017E001D
:1000C30012000EE542154270021541E542454170AA
:1000D300E2806775410075421430B21DE542454127
:1000E30060177F0A7E0012000EE54215427002156A
:1000F30041E542454170E28041C3E542940CE5414C
:100103009400500974682543F8E64480F60544E5F5
:1001130044C39408408A0543E543C394045003024F
:1001230000A0E56BF4656A601175430074682543AC
:0A013300F876000543E543B404F23A
:10013D00D007D006D005D004D003D002D001D00016
:0B014D00D0D0D082D083D0F0D0E032C0
:0309A900AF6A2210
:10061F0011213F065B4F666D7D077F6F777C395EDB
:03062F00797100DE
:10098700EFC39410500774212FF8E6FF227F00224F
:0603CF008B468A478948B5
:1003D500E4F549ED14F54AF549E549C39408507B20
:1003E500E549B40800504D9003F3F828287302043A
:1003F5000B02040F02041302041702041B02042358
:1004050002042B020433D2A4800ED2A48012D2A4FB
:100415008016D2A4801AC2A4D2A3D2A28016C2A4E6
:10042500D2A3C2A2800EC2A4C2A3D2A28006C2A435
:10043500C2A3C2A2C3E549954AFFE49400AB46AA0C
:1004450047A9488F82F58312034DF5807F647E00AE
:0B04550012000EE4F58005490203DEF2
:010460002279
:0F063200016600016500016400016700016300BB
:1008BF0053890F4389108F8B8D8DC28FD28ED2AB00
:0C08CF00D2AF8F668D658B64854E67226A
:03001B00020820B8
:06082000C0E0C0F0C0D0F2
:1008260085668A85658C0563E5638564F08485F055
:0E08360063E563D395675004D2A18002C2A18E
:07084400D0D0D0F0D0E0326B
:0309AC008F672230
:1005660020B1147F147E0012092D30B1FD7F147E58
:100576000012092D7F012220B0147F147E0012097B
:100586002D30B0FD7F147E0012092D7F022220B28D
:10059600147F147E0012092D30B2FD7F147E0012E6
:1005A600092D7F032220B3147F147E0012092D30FB
:0F05B600B3FD7F147E0012092D7F04227F0022E7
:05000600C2B6C2B522E4
:0206AF00A90799
:1006B100E4FB7E007480A803088006CEA2E713CE77
:1006C10013D8F8FFEDF582EF558224FF92B4D2B62C
:1006D100C2B60BBB08DCD2B5C2B5AF01A8077480A6
:1006E100088002C313D8FCF4F5807F647E001200F9
:0406F1000E7580FF03
:0106F50022E2
:100737000000000000000000003E48483E007E48E0
:100747004C32007E525252000040201E2040003C96
:1007570042423C007C02027C00003C42423C007E5C
:1007670018244200007A7A00000000000000000010
:100641000135A402360000C18101400001320001E0
:02065100340073
:1008DB005389F0438901E4F58A758CDCC28DD28C87
:0C08EB00D2A9D2AF753F76F53C020006A2
:03000B0002015897
:10015800C0E0C0F0C083C082C0D075D000C000C06D
:0D01680001C002C003C004C005C006C007EE
:10017500758A00758CDC0532E53275F0648485F08E
:1001850032200103020216E53275F03284E5F07083
:10019500731209A98F40E540C4540FFF1209878FD8
:1001A5003DE540540FFF1209878F3EAF351206F625
:1001B5008E368F377C037DE812037A1209878F38D4
:1001C500AE36AF377C007D6412037A7C007D0A125F
:1001D500037AAF051209878F39AE36AF377C007DBC
:1001E5000A12037A7C007D0A12037AAF0512098789
:1001F5008F3AAE36AF377C007D0A12037AAF05120F
:1002050009878F3B7B007A0079387D011203CF8007
:1002150030753300E533253490073793FDAF33123E
:1002250006AF0533E533C3940840E9E53275F014AC
:1002350084E5F0700C0534E534D394384003753407
:0102450000B8
:10024600D007D006D005D004D003D002D001D0000C
:0B025600D0D0D082D083D0F0D0E032B6
:0309AF008F35225F
:05001E00A20292012284
:0309B200A201227D
:1006530010080102030405060708090A0B0C0D0E16
:020663000F1076
:1004ED0075900FE590640F606D7F147E0012092DDD
:1004FD00AF90EF24F5601024FE60111460132407F3
:10050D007012E4F519800D751901800875190280B6
:10051D00037519037590F0AF90EF2450601124E02E
:10052D00601224F0601324707012E4F518800D75BC
:10053D00180180087518028003751803E590B4F052
:10054D00FB7F147E0012092DE51825E025E0240817
:08055D002519F8E6FF227F00DA
:010565002273
:0300000002046196
:0C046100787FE4F6D8FD7581740204A8D1
:10033400BB010689828A83E0225002E722BBFE02C7
:09034400E32289828A83E49322FA
:10034D00BB010CE58229F582E5833AF583E0225065
:10035D0006E92582F8E622BBFE06E92582F8E222AF
:0D036D00E58229F582E5833AF583E49322C9
:10037A00BC000BBE0029EF8DF084FFADF022E4CC67
:10038A00F875F008EF2FFFEE33FEEC33FCEE9DEC30
:10039A00984005FCEE9DFE0FD5F0E9E4CEFD22ED76
:1003AA00F8F5F0EE8420D21CFEADF075F008EF2FC0
:1003BA00FFED33FD4007985006D5F0F222C398FDB1
:0503CA000FD5F0EA224E
:10046D00020261E493A3F8E493A34003F68001F242
:10047D0008DFF48029E493A3F85407240CC8C33390
:10048D00C4540F4420C8834004F456800146F6DF5F
:10049D00E4800B010204081020408090061AE47ECF
:1004AD00019360BCA3FF543F30E509541FFEE49354
:1004BD00A360010ECF54C025E060A840B8E493A31B
:1004CD00FAE493A3F8E493A3C8C582C8CAC583CA46
:1004DD00F0A3C8C582C8CAC583CADFE9DEE780BEFE
:010665000094
:00000001FF
