:1002A9007515A4E4F516F517F518F519F51A751B62
:1002B90001751C011209E41207B7EF24FE6011143D
:1002C90060151460192403701A751594B2A7801368
:1002D9007515D4B2A7800C7515A4B2A7800575153C
:1002E900E4B2A71206C9EF14B41000400302037A5E
:1002F90090030775F003A4C58325F0C58373020332
:100309003702033B02033F02034302034702034B45
:1003190002034F02035302035702035B0203640201
:10032900036802036C0203700203740203787F01FD
:1003390080227F02801E7F03801A7F0480167F053A
:1003490080127F06800E7F07800A7F0880067F095A
:1003590080027F0A120A2AB2A78016B2A78012B2B7
:10036900A7800EB2A7800AB2A78006B2A78002B200
:10037900A7AF151208A48E168F177C037DE8120209
:10038900101209FB8F0DAE16AF177C007D641202A7
:10039900107C007D0A120210AF051209FB8F0EAE08
:1003A90016AF177C007D0A1202107C007D0A12022A
:1003B90010AF051209FB8F0FAE16AF177C007D0A2F
:1003C900120210AF051209FB8F10120742E4FBFA63
:1003D9007920784112001E1201628E188F19C3E527
:1003E90018648094805010751140C3E49519F5196B
:1003F900E49518F5188003E4F511AE18AF197C00DF
:100409007D641202651209FB8F12AE18AF197C00C8
:100419007D0A1202657C007D0A120265AF05120988
:10042900FBEF4480F513AE18AF197C007D0A120268
:1004390065AF051209FB8F147B007A00790D7D01E8
:100449001205AB051A531A01E51A60030202C0E549
:100459001C251BF51BFF120A2AE51BB41503751C85
:10046900FFE51B640460030202C0751C010202C09F
:1008A400E4FBFAC2B6C2B5FDEFC41313135401241A
:1008B400FF92B4EF25E0FFC2B6D2B60DBD08E9D26F
:1008C400B6C2B6E4FDEB25E0FBEA33FAD2B6C2B613
:1008D400A2B7E43342030DBD0CEBD2B5AE02AF03B5
:0108E40022F1
:0A09CB00EF1FAC0670011E4C600E19
:0C09D500751D02751EC7D51EFDD51DFA4C
:0309E10080E82289
:0B0A0B00EF1FAC0670011E4C70F622BD
:1007B70020B1147F0A7E001209CB30B1FD7F0A7E7B
:1007C700001209CB7F012220B0147F0A7E00120994
:1007D700CB30B0FD7F0A7E001209CB7F022220B208
:1007E700147F0A7E001209CB30B2FD7F0A7E001209
:1007F70009CB7F032220B3147F0A7E001209CB3076
:0F080700B3FD7F0A7E001209CB7F04227F0022FF
:050A2500C2B6C2B522BB
:02081600A90730
:10081800E4FB7E007480A803088006CEA2E713CE0E
:1008280013D8F8FFEDF582EF558224FF92B4D2B6C3
:10083800C2B60BBB08DCD2B5C2B5AF01A80774803D
:10084800088002C313D8FCF4F5807F647E00120A86
:040858000B7580FF9D
:01085C002279
:1009540010270102030405060708090A0B0C0D0EF3
:020964000F1072
:1006C90075900FE590640F606D7F0A7E001209CB6B
:1006D900AF90EF24F5601024FE6011146013240715
:1006E9007012E4F538800D7538018008753802807C
:1006F900037538037590F0AF90EF2450601124E032
:10070900601224F0601324707012E4F537800D75BF
:10071900370180087537028003753703E590B4F017
:10072900FB7F0A7E001209CBE53725E025E0242767
:080739002538F8E6FF227F00DD
:010741002295
:10000600C2B77F4B7E00120A0BD2B77F027E000278
:020016000A0BD3
:10085D00E4F52430B712E524C39414500B05247F1E
:10086D00017E00120A0B80EBE524C3941440037F34
:10087D000122E4F52420B712E524C39414500B058E
:10088D00247F017E00120A0B80EBE524C3941440F3
:06089D00037F01227F0031
:0108A3002232
:060A1F0012000602085D52
:0208E5008F245E
:1008E700E4F5257E007401A825088005C333CE33BF
:1008F700CED8F9FFEF5524600FC2B70000D2B77FFB
:10090700067E00120A0B800DC2B77F067E00120A10
:0E0917000BD2B700000525E525C3940840C5A6
:0109250022AF
:1009AB00E4F550C2B70000D2B7000030B705755060
:0F09BB00018003E4F5507F057E00120A0BAF5058
:0109CA00220A
:10092600E4F525F526F524E526C313F526C2B7001A
:1009360000D2B7000030B7034326807F057E001241
:0D0946000A0B0524E524C3940840DCAF260D
:010953002281
:10074200120A1F7FCC1208E57F441208E5120A1F25
:100752007FCC1208E57FBE1208E51209268F1D1212
:100762000926AD07EDFEE51DFBEEF51EEBF51FEDCF
:1007720054F8FFBFF81CE51FF4FFE51EF4FEEF245A
:1007820001FDE43EFCE4120129E4FBFA798078BD24
:10079200800FAC1EAD1FE4120129E4FBFA798078C8
:1007A2003D12001E8F238E228D218C20AF23AE227C
:0407B200AD21AC20A9
:0107B6002220
:1009660011393F065B4F666D7D077F6F777C395E79
:0309760079710094
:1009FB00EFC39411500774392FF8E6FF227F0022C2
:0605AB008B1D8A1E891F52
:1005B100E4F520ED14F521F520E520C39408507BE6
:1005C100E520B40800504D9005CFF82828730205A6
:1005D100E70205EB0205EF0205F30205F70205FF4D
:1005E10002060702060FD2A4800ED2A48012D2A462
:1005F1008016D2A4801AC2A4D2A3D2A28016C2A409
:10060100D2A3C2A2800EC2A4C2A3D2A28006C2A457
:10061100C2A3C2A2C3E5209521FFE49400AB1DAAA9
:100621001EA91F8F82F5831201E3F5807F647E008E
:0B063100120A0BE4F58005200205BA58
:01063C00229B
:090A1600D288D2A8D2AFD2B222DC
:030003000204797B
:10047900C0E0C0F0C083C082C0D075D000C000C049
:0D04890001C002C003C004C005C006C007CA
:10049600750C0030B2030205907508037509E82053
:1004A600B21EE509450860187F017E00120A0BE5B9
:1004B60009150970021508E509450870E20205905C
:1004C60030B22775080275092630B21EE5094508BF
:1004D60060187F017E00120A0BE5091509700215E6
:1004E60008E509450870E2020590750A00750B00DB
:1004F600744A250AF8C000E6C313D000F675080250
:1005060075095820B21DE509450860177F017E0070
:10051600120A0BE509150970021508E50945087068
:10052600E2806775080075091430B21DE5094508B3
:1005360060177F0A7E00120A0BE50915097002157D
:1005460008E509450870E28041C3E509940CE50811
:1005560094005009744A250AF8E64480F6050BE52E
:100566000BC39408408A050AE50AC39404500302A3
:1005760004F3E54DF4654C6011750A00744A250ACA
:0A058600F87600050AE50AB404F255
:10059000D007D006D005D004D003D002D001D000BF
:0B05A000D0D0D082D083D0F0D0E03269
:03001800AF4C22C8
:06097900014F01014E00D8
:1009E40053890F438910758BA4758DFFC28FD28EE6
:0709F400D2ABD2AFD2A12269
:03001B0002098057
:06098000C0E0C0F0C0D091
:10098600758BA4758DFF054EE54E75F0C88485F010
:0E0996004EE54EC3954F5004D2A18002C2A17F
:0709A400D0D0D0F0D0E0320A
:030A2A008F4F22C9
:10001E00EC4D6011E8497017ED33EC3304600DE4DC
:10002E00FCFFFEFD22E933E8330470F80201CE1224
:10003E00019958046009E4CC248150062850090225
:10004E0001D82840030201D5C0E0EB4A7044B980C4
:10005E0006D0E0FB0201C4EF4E701CBD8008EBFF22
:10006E00EAFEE9FD80EBE98DF0A4FEE5F002010762
:10007E00E9CDF9EAFEEBFFEF89F0A4FCE5F0CE89BD
:10008E00F0A42EFFE435F0CD89F0A42DFEE435F07A
:10009E008067EF4E7005BD80D780C3EF8BF0A4ACA8
:1000AE00F0EE8BF0A42CFCE435F0F8EF8AF0A42CE3
:1000BE00E5F038FCE433CB8DF0A42CFCE5F03BF8F6
:1000CE00EE8AF0A42CFCE5F038F8E433CF89F0A4E6
:1000DE002CFCE5F038CF3400CE89F0A42FFFE5F0EC
:1000EE003EFEE433C98DF0A42EFEE5F039CD8AF044
:1000FE00A42FFFE5F03EFEE43DFD33D0E0FB5007BC
:10010E000BBB000F0201D8EC2CFCEF33FFEE33FEDD
:06011E00ED33FD0201B00B
:1001240075F020800E75F010800575F0087D007E56
:10013400007F003392D530D50312029BEC3340107C
:10014400EF33FFEE33FEED33FDEC33FCD5F0ED225F
:0E015400E5F0247EA2D513CC92E7CDCEFF229B
:10016200EDD2E7CD33EC3392D524814006E4FFFE95
:10017200FDFC22FCE4CFCECDCC24E0501174FF80F4
:10018200EDC3CC13CCCD13CDCE13CECF13CF047091
:07019200F030D5DE02029BF4
:10019900E9D2E7C933E833F892D5EDD2E7CD33ECAC
:0701A90033FC5002B2D52225
:1001B000EC30E7100FBF000C0EBE00080DBD0004B0
:1001C0000BEB6014A2D5EB13FCED92E7FD2274FF5C
:1001D000FCFDFEFF22E480F8A2D574FF13FC7D80B5
:0301E000E480EFC9
:0300000002063DB8
:0C063D00787FE4F6D8FD75815002068439
:1001E300BB010CE58229F582E5833AF583E02250D1
:1001F30006E92582F8E622BBFE06E92582F8E2221B
:0D020300E58229F582E5833AF583E4932234
:10021000BC000BBE0029EF8DF084FFADF022E4CCD2
:10022000F875F008EF2FFFEE33FEEC33FCEE9DEC9B
:10023000984005FCEE9DFE0FD5F0E9E4CEFD22EDE1
:10024000F8F5F0EE8420D21CFEADF075F008EF2F2B
:10025000FFED33FD4007985006D5F0F222C398FD1C
:050260000FD5F0EA22B9
:10026500C2D5EC30E709B2D5E4C39DFDE49CFCEEB4
:1002750030E715B2D5E4C39FFFE49EFE120210C31A
:10028500E49DFDE49CFC800312021030D507C3E415
:060295009FFFE49EFE2223
:0E029B00C3E49FFFE49EFEE49DFDE49CFC2274
:100649000202A9E493A3F8E493A34003F68001F21C
:1006590008DFF48029E493A3F85407240CC8C333B2
:10066900C4540F4420C8834004F456800146F6DF81
:10067900E4800B0102040810204080900954E47EB4
:10068900019360BCA3FF543F30E509541FFEE49376
:10069900A360010ECF54C025E060A840B8E493A33D
:1006A900FAE493A3F8E493A3C8C582C8CAC583CA68
:1006B900F0A3C8C582C8CAC583CADFE9DEE780BE20
:01097F000077
:00000001FF
