:1008F8000000000000000000003E48483E007E481E
:100908004C32007E525252000040201E2040003CD3
:1009180042423C007C02027C00003C42423C007E99
:1009280018244200007A7A0000000000000000004D
:1002A9007515A4E4F516F517F519F51AF51BF51CDE
:1002B9001209F6120789EF24FE6011146015146003
:1002C900192403701A751594B2A780137515D4B241
:1002D900A7800C7515A4B2A780057515E4B2A712FD
:1002E900069BEF14B41000400302037690030375D4
:1002F900F003A4C58325F0C58373020333020337D2
:1003090002033B02033F02034302034C0203500270
:10031900035402035802035C0203600203640203EC
:100329006802036C0203700203747F01800E7F026E
:10033900800A7F0380067F0480027F05120A3CB28F
:10034900A7802AB2A78026B2A78022B2A7801EB2B0
:10035900A7801AB2A78016B2A78012B2A7800EB2E0
:10036900A7800AB2A78006B2A78002B2A7AF15126A
:1003790008768E168F177C037DE8120210120A0D7B
:100389008F0DAE16AF177C007D641202107C007DC4
:100399000A120210AF05120A0D8F0EAE16AF177CA6
:1003A900007D0A1202107C007D0A120210AF0512AC
:1003B9000A0D8F0FAE16AF177C007D0A120210AF1F
:1003C90005120A0D8F10120714E4FBFA79207841FF
:1003D90012001E1201628E1B8F1CC3E51B648094E0
:1003E900805010751140C3E4951CF51CE4951BF56C
:1003F9001B8003E4F511AE1BAF1C7C007D64120267
:1004090065120A0D8F12AE1BAF1C7C007D0A120209
:10041900657C007D0A120265AF05120A0DEF448062
:10042900F513AE1BAF1C7C007D0A120265AF0512E5
:100439000A0D8F147B007A00790D7D0112057D026A
:0204490002BCF3
:10087600E4FBFAC2B6C2B5FDEFC413131354012448
:10088600FF92B4EF25E0FFC2B6D2B60DBD08E9D29D
:10089600B6C2B6E4FDEB25E0FBEA33FAD2B6C2B641
:1008A600A2B7E43342030DBD0CEBD2B5AE02AF03E3
:0108B600221F
:0A09DD00EF1FAC0670011E4C600E07
:0C09E700751D02751EC7D51EFDD51DFA3A
:0309F30080E82277
:0B0A1D00EF1FAC0670011E4C70F622AB
:1007890020B1147F0A7E001209DD30B1FD7F0A7E97
:10079900001209DD7F012220B0147F0A7E001209B0
:1007A900DD30B0FD7F0A7E001209DD7F022220B212
:1007B900147F0A7E001209DD30B2FD7F0A7E001225
:1007C90009DD7F032220B3147F0A7E001209DD3080
:0F07D900B3FD7F0A7E001209DD7F04227F00221C
:050A3700C2B6C2B522A9
:0207E800A9075F
:1007EA00E4FB7E007480A803088006CEA2E713CE3D
:1007FA0013D8F8FFEDF582EF558224FF92B4D2B6F2
:10080A00C2B60BBB08DCD2B5C2B5AF01A80774806B
:10081A00088002C313D8FCF4F5807F647E00120AB4
:04082A001D7580FFB9
:01082E0022A7
:1009660010270102030405060708090A0B0C0D0EE1
:020976000F1060
:10069B0075900FE590640F606D7F0A7E001209DD87
:1006AB00AF90EF24F5601024FE6011146013240743
:1006BB007012E4F538800D753801800875380280AA
:1006CB00037538037590F0AF90EF2450601124E060
:1006DB00601224F0601324707012E4F537800D75EE
:1006EB00370180087537028003753703E590B4F046
:1006FB00FB7F0A7E001209DDE53725E025E0242784
:08070B002538F8E6FF227F000B
:0107130022C3
:10000600C2B77F4B7E00120A1DD2B77F027E000266
:020016000A1DC1
:10082F00E4F52430B712E524C39414500B05247F4C
:10083F00017E00120A1D80EBE524C3941440037F50
:10084F000122E4F52420B712E524C39414500B05BC
:10085F00247F017E00120A1D80EBE524C39414400F
:06086F00037F01227F005F
:010875002260
:060A310012000602082F6E
:0208B7008F248C
:1008B900E4F5257E007401A825088005C333CE33ED
:1008C900CED8F9FFEF5524600FC2B70000D2B77F29
:1008D900067E00120A1D800DC2B77F067E00120A2D
:0E08E9001DD2B700000525E525C3940840C5C3
:0108F70022DE
:1009BD00E4F550C2B70000D2B7000030B70575504E
:0F09CD00018003E4F5507F057E00120A1DAF5034
:0109DC0022F8
:10093800E4F525F526F524E526C313F526C2B70008
:1009480000D2B7000030B7034326807F057E00122F
:0D0958000A1D0524E524C3940840DCAF26E9
:01096500226F
:10071400120A317FCC1208B77F441208B7120A318B
:100724007FCC1208B77FBE1208B71209388F1D128A
:100734000938AD07EDFEE51DFBEEF51EEBF51FEDEB
:1007440054F8FFBFF81CE51FF4FFE51EF4FEEF2488
:1007540001FDE43EFCE4120129E4FBFA798078BD52
:10076400800FAC1EAD1FE4120129E4FBFA798078F6
:100774003D12001E8F238E228D218C20AF23AE22AA
:04078400AD21AC20D7
:01078800224E
:1009780011393F065B4F666D7D077F6F777C395E67
:0309880079710082
:100A0D00EFC39411500774392FF8E6FF227F0022AF
:06057D008B1D8A1E891F80
:10058300E4F520ED14F521F520E520C39408507B14
:10059300E520B40800504D9005A1F8282873020502
:1005A300B90205BD0205C10205C50205C90205D18F
:1005B3000205D90205E1D2A4800ED2A48012D2A4EE
:1005C3008016D2A4801AC2A4D2A3D2A28016C2A437
:1005D300D2A3C2A2800EC2A4C2A3D2A28006C2A486
:1005E300C2A3C2A2C3E5209521FFE49400AB1DAAD8
:1005F3001EA91F8F82F5831201E3F5807F647E00BD
:0B060300120A1DE4F580052002058CA2
:01060E0022C9
:090A2800D288D2A8D2AFD2B222CA
:0300030002044BA9
:10044B00C0E0C0F0C083C082C0D075D000C000C077
:0D045B0001C002C003C004C005C006C007F8
:10046800750C0030B2030205627508037509E820AF
:10047800B21EE509450860187F017E00120A1DE5D5
:1004880009150970021508E509450870E2020562B8
:1004980030B22775080275092630B21EE5094508ED
:1004A80060187F017E00120A1DE509150970021502
:1004B80008E509450870E2020562750A00750B0037
:1004C800744A250AF8C000E6C313D000F67508027E
:1004D80075095820B21DE509450860177F017E009F
:1004E800120A1DE509150970021508E50945087085
:1004F800E2806775080075091430B21DE5094508E2
:1005080060177F0A7E00120A1DE509150970021599
:1005180008E509450870E28041C3E509940CE5083F
:1005280094005009744A250AF8E64480F6050BE55C
:100538000BC39408408A050AE50AC39404500302D1
:1005480004C5E54DF4654C6011750A00744A250A26
:0A055800F87600050AE50AB404F283
:10056200D007D006D005D004D003D002D001D000ED
:0B057200D0D0D082D083D0F0D0E03297
:03001800AF4C22C8
:06098B00014F01014E00C6
:1009F60053890F438910758B33758DFEC28FD28E46
:070A0600D2ABD2AFD2A12256
:03001B0002099245
:06099200C0E0C0F0C0D07F
:10099800758B33758DFE054EE54E75F0288485F010
:0E09A8004EE54EC3954F5004D2A18002C2A16D
:0709B600D0D0D0F0D0E032F8
:030A3C008F4F22B7
:10001E00EC4D6011E8497017ED33EC3304600DE4DC
:10002E00FCFFFEFD22E933E8330470F80201CE1224
:10003E00019958046009E4CC248150062850090225
:10004E0001D82840030201D5C0E0EB4A7044B980C4
:10005E0006D0E0FB0201C4EF4E701CBD8008EBFF22
:10006E00EAFEE9FD80EBE98DF0A4FEE5F002010762
:10007E00E9CDF9EAFEEBFFEF89F0A4FCE5F0CE89BD
:10008E00F0A42EFFE435F0CD89F0A42DFEE435F07A
:10009E008067EF4E7005BD80D780C3EF8BF0A4ACA8
:1000AE00F0EE8BF0A42CFCE435F0F8EF8AF0A42CE3
:1000BE00E5F038FCE433CB8DF0A42CFCE5F03BF8F6
:1000CE00EE8AF0A42CFCE5F038F8E433CF89F0A4E6
:1000DE002CFCE5F038CF3400CE89F0A42FFFE5F0EC
:1000EE003EFEE433C98DF0A42EFEE5F039CD8AF044
:1000FE00A42FFFE5F03EFEE43DFD33D0E0FB5007BC
:10010E000BBB000F0201D8EC2CFCEF33FFEE33FEDD
:06011E00ED33FD0201B00B
:1001240075F020800E75F010800575F0087D007E56
:10013400007F003392D530D50312029BEC3340107C
:10014400EF33FFEE33FEED33FDEC33FCD5F0ED225F
:0E015400E5F0247EA2D513CC92E7CDCEFF229B
:10016200EDD2E7CD33EC3392D524814006E4FFFE95
:10017200FDFC22FCE4CFCECDCC24E0501174FF80F4
:10018200EDC3CC13CCCD13CDCE13CECF13CF047091
:07019200F030D5DE02029BF4
:10019900E9D2E7C933E833F892D5EDD2E7CD33ECAC
:0701A90033FC5002B2D52225
:1001B000EC30E7100FBF000C0EBE00080DBD0004B0
:1001C0000BEB6014A2D5EB13FCED92E7FD2274FF5C
:1001D000FCFDFEFF22E480F8A2D574FF13FC7D80B5
:0301E000E480EFC9
:0300000002060FE6
:0C060F00787FE4F6D8FD75815002065695
:1001E300BB010CE58229F582E5833AF583E02250D1
:1001F30006E92582F8E622BBFE06E92582F8E2221B
:0D020300E58229F582E5833AF583E4932234
:10021000BC000BBE0029EF8DF084FFADF022E4CCD2
:10022000F875F008EF2FFFEE33FEEC33FCEE9DEC9B
:10023000984005FCEE9DFE0FD5F0E9E4CEFD22EDE1
:10024000F8F5F0EE8420D21CFEADF075F008EF2F2B
:10025000FFED33FD4007985006D5F0F222C398FD1C
:050260000FD5F0EA22B9
:10026500C2D5EC30E709B2D5E4C39DFDE49CFCEEB4
:1002750030E715B2D5E4C39FFFE49EFE120210C31A
:10028500E49DFDE49CFC800312021030D507C3E415
:060295009FFFE49EFE2223
:0E029B00C3E49FFFE49EFEE49DFDE49CFC2274
:10061B000202A9E493A3F8E493A34003F68001F24A
:10062B0008DFF48029E493A3F85407240CC8C333E0
:10063B00C4540F4420C8834004F456800146F6DFAF
:10064B00E4800B0102040810204080900966E47ED0
:10065B00019360BCA3FF543F30E509541FFEE493A4
:10066B00A360010ECF54C025E060A840B8E493A36B
:10067B00FAE493A3F8E493A3C8C582C8CAC583CA96
:10068B00F0A3C8C582C8CAC583CADFE9DEE780BE4E
:010991000065
:00000001FF
