:1004420012097F7540057B0A7DFF7FAE12099E125D
:100452000716EF24FE600E14600F14601024037060
:10046200137F94800A7FD480067FA480027FE412E7
:100472000A0CB2A7120628EF14B4100050D190044F
:100482008E75F003A4C58325F0C583730204BE02F2
:1004920004C20204C60204CA0204CE0204D3020445
:1004A200D80204DD0204E20204E70204EC0204F1D1
:1004B2000204F60204FB020500020505B2A7808FC2
:1004C200B2A7808BB2A78087B2A78083B2A70204AB
:1004D20051B2A7020451B2A7020451B2A7020451B9
:1004E200B2A7020451B2A7020451B2A7020451B248
:1004F200A7020451B2A7020451B2A7020451B2A743
:08050200020451B2A7020451EA
:10080300E4FBFAC2B6C2B5FDEFC4131313540124BB
:10081300FF92B4EF25E0FFC2B6D2B60DBD08E9D210
:10082300B6C2B6E4FDEB25E0FBEA33FAD2B6C2B6B4
:10083300A2B7E43342030DBD0CEBD2B5AE02AF0356
:010843002292
:0A09BA00EF1FAC0670011E4C600E2A
:0C09C400753D02753EC7D53EFDD53DFADD
:0309D00080E8229A
:0B000E00EF1FAC0670011E4C70F622C4
:0F084400011D00011C00011B00011E00011A0014
:10099E0053890F4389108F8B8D8DC28FD28ED2AB20
:0C09AE00D2AF8F1D8D1C8B1B85401E22BC
:03001B00020934A3
:06093400C0E0C0F0C0D0DD
:10093A00851D8A851C8C051AE51A851BF08485F0AD
:0E094A001AE51AD3951E5004D2A18002C2A154
:07095800D0D0D0F0D0E03256
:030A09008F1E221B
:1007160020B1147F147E001209BA30B1FD7F147E19
:10072600001209BA7F012220B0147F147E0012093C
:10073600BA30B0FD7F147E001209BA7F022220B2C1
:10074600147F147E001209BA30B2FD7F147E0012A7
:1007560009BA7F032220B3147F147E001209BA302F
:0F076600B3FD7F147E001209BA7F04227F0022A8
:05000600C2B6C2B522E4
:02077500A907D2
:10077700E4FB7E007480A803088006CEA2E713CEB0
:1007870013D8F8FFEDF582EF558224FF92B4D2B665
:10079700C2B60BBB08DCD2B5C2B5AF01A8077480DF
:1007A700088002C313D8FCF4F5807F647E00120032
:0407B7000E7580FF3C
:0107BB00221B
:1008C6000000000000000000003E48483E007E4850
:1008D6004C32007E525252000040201E2040003C06
:1008E60042423C007C02027C00003C42423C007ECC
:1008F60018244200007A7A00000000000000000080
:0C0853000142A402430000C181014100E9
:10097F005389F0438901E4F58A758CDCC28DD28CE2
:0F098F00D2A9D2AF754C76F5491200060209F5D0
:03000B0002036E7F
:10036E00C0E0C0F0C083C082C0D075D000C000C055
:0D037E0001C002C003C004C005C006C007D6
:10038B00753200758A00758CDC0541E54175F064AA
:10039B008485F041120A128F32E532C4540FFF12DA
:1003AB0009E58F4AE532540FFF1209E58F4BE54102
:1003BB0075F00F84E5F07059AF421208038E438F2E
:1003CB00447C037DE81201D91209E58F45AE43AF9A
:1003DB00447C007D641201D97C007D0A1201D9AFE7
:1003EB00051209E58F46AE43AF447C007D0A12012E
:1003FB00D97C007D0A1201D9AF051209E58F47AEF2
:10040B0043AF447C007D0A1201D9AF051209E58F79
:0C041B00487B007A0079457D0112050A3B
:10042700D007D006D005D004D003D002D001D00029
:0B043700D0D0D082D083D0F0D0E032D3
:030A0C008F4222F4
:050A0400A20092012296
:030A0F00A201221F
:10085F0010080102030405060708090A0B0C0D0E08
:02086F000F1068
:1006280075900FE590640F606D7F147E001209BA13
:10063800AF90EF24F5601024FE60111460132407B6
:100648007012E4F519800D7519018008751902807A
:10065800037519037590F0AF90EF2450601124E0F2
:10066800601224F0601324707012E4F518800D7580
:10067800180180087518028003751803E590B4F016
:10068800FB7F147E001209BAE51825E025E024084E
:080698002519F8E6FF227F009E
:0106A0002237
:1009D300C2B77F4B7E0012000ED2B77F027E0002A9
:0209E300000E04
:1007BC00E4F51F30B712E51FC39414500B051F7FCF
:1007CC00017E0012000E80EBE51FC3941440037FE2
:1007DC000122E4F51F20B712E51FC39414500B053A
:1007EC001F7F017E0012000E80EBE51FC3941440A6
:0607FC00037F01227F00D3
:0108020022D3
:0609FE001209D30207BC40
:020885008F5B87
:10088700E4F55C7E007401A85C088005C333CE33B1
:10089700CED8F9FFEF555B600FC2B70000D2B77F24
:1008A700067E0012000E800DC2B77F067E00120082
:0E08B7000ED2B70000055CE55CC3940840C596
:0108C5002210
:10095F00E4F55DC2B70000D2B7000030B705755D92
:0F096F00018003E4F55D7F057E0012000EAF5D91
:01097E002256
:10090600E4F559F55AF558E55AC313F55AC2B70036
:1009160000D2B7000030B703435A807F057E00122D
:0D092600000E0558E558C3940840DCAF5A98
:0109330022A1
:1006A1001209FE7FCC1208857F441208851209FECB
:1006B1007FCC1208857FBE1208851209068F4D1264
:1006C1000906AD07EDFEE54DFBEEF54EEBF54FED01
:1006D10054F8FFBFF81CE54FF4FFE54EF4FEEF249C
:1006E10001FDE43EFCE4120129E4FBFA798078BDC6
:1006F100800FAC4EAD4FE4120129E4FBFA7980780A
:100701003D12001E8F538E528D518C50AF53AE52FD
:04071100AD51AC50EA
:0107150022C1
:1008710011213F065B4F666D7D077F6F777C395E87
:030881007971008A
:1009E500EFC39411500774212FF8E6FF227F0022F0
:06050A008B338A348935B1
:10051000E4F536ED14F537F536E536C39408507B2F
:10052000E536B40800504D90052EF82828730205D2
:100530004602054A02054E02055202055602055EB4
:1005400002056602056ED2A4800ED2A48012D2A447
:100550008016D2A4801AC2A4D2A3D2A28016C2A4AA
:10056000D2A3C2A2800EC2A4C2A3D2A28006C2A4F9
:10057000C2A3C2A2C3E5369537FFE49400AB33AA09
:1005800034A9358F82F5831201ACF5807F647E003B
:0B05900012000EE4F58005360205198C
:01059B00223D
:0909F500D288D2A8D2AFD2B222FE
:0300030002023CBA
:10023C00C0E0C0F0C083C082C0D075D000C000C088
:0D024C0001C002C003C004C005C006C00709
:10025900753C0030B2030203537538037539E82041
:10026900B21EE539453860187F017E0012000EE59F
:1002790039153970021538E539453870E2020353EA
:1002890030B22775380275392630B21EE53945383E
:1002990060187F017E0012000EE5391539700215CC
:1002A90038E539453870E2020353753A00753B0069
:1002B9007454253AF8C000E6C313D000F675380225
:1002C90075395820B21DE539453860177F017E0020
:1002D90012000EE539153970021538E539453870BF
:1002E900E2806775380075391430B21DE539453833
:1002F90060177F0A7E0012000EE539153970021564
:1003090038E539453870E28041C3E539940CE53860
:10031900940050097454253AF8E64480F6053BE503
:100329003BC39408408A053AE53AC3940450030252
:1003390002B6E557F465566011753A007454253ACA
:0A034900F87600053AE53AB404F234
:10035300D007D006D005D004D003D002D001D000FE
:0B036300D0D0D082D083D0F0D0E032A8
:030A1200AF5622BA
:10001E00EC4D6011E8497017ED33EC3304600DE4DC
:10002E00FCFFFEFD22E933E8330470F8020197125B
:10003E00016258046009E4CC24815006285009025C
:10004E0001A128400302019EC0E0EB4A7044B98032
:10005E0006D0E0FB02018DEF4E701CBD8008EBFF59
:10006E00EAFEE9FD80EBE98DF0A4FEE5F002010762
:10007E00E9CDF9EAFEEBFFEF89F0A4FCE5F0CE89BD
:10008E00F0A42EFFE435F0CD89F0A42DFEE435F07A
:10009E008067EF4E7005BD80D780C3EF8BF0A4ACA8
:1000AE00F0EE8BF0A42CFCE435F0F8EF8AF0A42CE3
:1000BE00E5F038FCE433CB8DF0A42CFCE5F03BF8F6
:1000CE00EE8AF0A42CFCE5F038F8E433CF89F0A4E6
:1000DE002CFCE5F038CF3400CE89F0A42FFFE5F0EC
:1000EE003EFEE433C98DF0A42EFEE5F039CD8AF044
:1000FE00A42FFFE5F03EFEE43DFD33D0E0FB5007BC
:10010E000BBB000F0201A1EC2CFCEF33FFEE33FE14
:06011E00ED33FD02017942
:1001240075F020800E75F010800575F0087D007E56
:10013400007F003392D530D50312022EEC334010E9
:10014400EF33FFEE33FEED33FDEC33FCD5F0ED225F
:0E015400E5F0247EA2D513CC92E7CDCEFF229B
:10016200E9D2E7C933E833F892D5EDD2E7CD33ECE3
:0701720033FC5002B2D5225C
:10017900EC30E7100FBF000C0EBE00080DBD0004E7
:100189000BEB6014A2D5EB13FCED92E7FD2274FF93
:10019900FCFDFEFF22E480F8A2D574FF13FC7D80EC
:0301A900E480EF00
:0300000002059C5A
:0C059C00787FE4F6D8FD75815D0205E370
:1001AC00BB010CE58229F582E5833AF583E0225008
:1001BC0006E92582F8E622BBFE06E92582F8E22252
:0D01CC00E58229F582E5833AF583E493226C
:1001D900BC000BBE0029EF8DF084FFADF022E4CC0A
:1001E900F875F008EF2FFFEE33FEEC33FCEE9DECD3
:1001F900984005FCEE9DFE0FD5F0E9E4CEFD22ED19
:10020900F8F5F0EE8420D21CFEADF075F008EF2F62
:10021900FFED33FD4007985006D5F0F222C398FD53
:050229000FD5F0EA22F0
:0E022E00C3E49FFFE49EFEE49DFDE49CFC22E1
:1005A800020442E493A3F8E493A34003F68001F223
:1005B80008DFF48029E493A3F85407240CC8C33354
:1005C800C4540F4420C8834004F456800146F6DF23
:1005D800E4800B0102040810204080900844E47E67
:1005E800019360BCA3FF543F30E509541FFEE49318
:1005F800A360010ECF54C025E060A840B8E493A3DF
:10060800FAE493A3F8E493A3C8C582C8CAC583CA09
:10061800F0A3C8C582C8CAC583CADFE9DEE780BEC1
:010884000073
:00000001FF
