:100442001209721209AA120712EF24FE600E14603A
:100452000F146010240370137F94800A7FD48006E7
:100462007FA480027FE41209F7B2A7120624EF14D8
:10047200B4100050D190048575F003A4C58325F013
:10048200C583730204B50204B90204BD0204C102A9
:1004920004C50204CF0204D40204D90204DE020419
:1004A200E30204E80204ED0204F20204F70204FC8F
:1004B2000205017F01800E7F02800A7F0380067F92
:1004C2000480027F05120A00B2A7020448B2A70202
:1004D2000448B2A7020448B2A7020448B2A7020421
:1004E20048B2A7020448B2A7020448B2A7020448CD
:1004F200B2A7020448B2A7020448B2A7020448B253
:04050200A702044800
:1007FF00E4FBFAC2B6C2B5FDEFC4131313540124C0
:10080F00FF92B4EF25E0FFC2B6D2B60DBD08E9D214
:10081F00B6C2B6E4FDEB25E0FBEA33FAD2B6C2B6B8
:10082F00A2B7E43342030DBD0CEBD2B5AE02AF035A
:01083F002296
:0A099100EF1FAC0670011E4C600E53
:0C099B00753D02753EC7D53EFDD53DFA06
:0309A70080E822C3
:0B000E00EF1FAC0670011E4C70F622C4
:1007120020B1147F147E0012099130B1FD7F147E46
:10072200001209917F012220B0147F147E00120969
:100732009130B0FD7F147E001209917F022220B217
:10074200147F147E0012099130B2FD7F147E0012D4
:1007520009917F032220B3147F147E001209913085
:0F076200B3FD7F147E001209917F04227F0022D5
:05000600C2B6C2B522E4
:02077100A907D6
:10077300E4FB7E007480A803088006CEA2E713CEB4
:1007830013D8F8FFEDF582EF558224FF92B4D2B669
:10079300C2B60BBB08DCD2B5C2B5AF01A8077480E3
:1007A300088002C313D8FCF4F5807F647E00120036
:0407B3000E7580FF40
:0107B700221F
:100881000000000000000000003E48483E007E4895
:100891004C32007E525252000040201E2040003C4B
:1008A10042423C007C02027C00003C42423C007E11
:1008B10018244200007A7A000000000000000000C5
:0C08C1000140A402410000C181013F0081
:100972005389F0438901E4F58A758CDCC28DD28CEF
:0F098200D2A9D2AF754A76F5471200060209E3F3
:03000B0002036E7F
:10036E00C0E0C0F0C083C082C0D075D000C000C055
:0D037E0001C002C003C004C005C006C007D6
:10038B00753200758A00758CDC053FE53F75F064AE
:10039B008485F03F1209FD8F32E532C4540FFF12F2
:1003AB0009D38F48E532540FFF1209D38F49E53F2C
:1003BB0075F00F84E5F07059AF401207FF8E418F37
:1003CB00427C037DE81201D91209D38F43AE41AFB2
:1003DB00427C007D641201D97C007D0A1201D9AFE9
:1003EB00051209D38F44AE41AF427C007D0A120146
:1003FB00D97C007D0A1201D9AF051209D38F45AE06
:10040B0041AF427C007D0A1201D9AF051209D38F8F
:0C041B00467B007A0079437D0112050643
:10042700D007D006D005D004D003D002D001D00029
:0B043700D0D0D082D083D0F0D0E032D3
:0309F7008F40220C
:0509F200A200920122A9
:0309FA00A2012235
:1008CD0010080102030405060708090A0B0C0D0E9A
:0208DD000F10FA
:1006240075900FE590640F606D7F147E0012099140
:10063400AF90EF24F5601024FE60111460132407BA
:100644007012E4F519800D7519018008751902807E
:10065400037519037590F0AF90EF2450601124E0F6
:10066400601224F0601324707012E4F518800D7584
:10067400180180087518028003751803E590B4F01A
:10068400FB7F147E00120991E51825E025E024087B
:080694002519F8E6FF227F00A2
:01069C00223B
:1009C100C2B77F4B7E0012000ED2B77F027E0002BB
:0209D100000E16
:1007B800E4F55730B712E557C39414500B05577F2B
:1007C800017E0012000E80EBE557C3941440037FAE
:1007D8000122E4F55720B712E557C39414500B05CE
:1007E800577F017E0012000E80EBE557C39414403A
:0607F800037F01227F00D7
:0107FE0022D8
:0609EC001209C10207B868
:020840008F1E09
:10084200E4F51F7E007401A81F088005C333CE3370
:10085200CED8F9FFEF551E600FC2B70000D2B77FA6
:10086200067E0012000E800DC2B77F067E001200C7
:0E0872000ED2B70000051FE51FC3940840C555
:010880002255
:10095200E4F558C2B70000D2B7000030B7057558A9
:0F096200018003E4F5587F057E0012000EAF58A8
:010971002263
:1008F900E4F553F554F552E554C313F554C2B70062
:1009090000D2B7000030B7034354807F057E001240
:0D091900000E0552E552C3940840DCAF54B7
:0109260022AE
:10069D001209EC7FCC1208407F441208401209EC7D
:1006AD007FCC1208407FBE1208401208F98F4B1202
:1006BD0008F9AD07EDFEE54BFBEEF54CEBF54DED19
:1006CD0054F8FFBFF81CE54DF4FFE54CF4FEEF24A4
:1006DD0001FDE43EFCE4120129E4FBFA798078BDCA
:1006ED00800FAC4CAD4DE4120129E4FBFA79807812
:1006FD003D12001E8F518E508D4F8C4EAF51AE500E
:04070D00AD4FAC4EF2
:0107110022C5
:1008DF0011213F065B4F666D7D077F6F777C395E19
:0308EF007971001C
:1009D300EFC39411500774212FF8E6FF227F002202
:060506008B338A348935B5
:10050C00E4F536ED14F537F536E536C39408507B33
:10051C00E536B40800504D90052AF82828730205DA
:10052C004202054602054A02054E02055202055AD0
:10053C0002056202056AD2A4800ED2A48012D2A453
:10054C008016D2A4801AC2A4D2A3D2A28016C2A4AE
:10055C00D2A3C2A2800EC2A4C2A3D2A28006C2A4FD
:10056C00C2A3C2A2C3E5369537FFE49400AB33AA0D
:10057C0034A9358F82F5831201ACF5807F647E003F
:0B058C0012000EE4F580053602051594
:010597002241
:0909E300D288D2A8D2AFD2B22210
:0300030002023CBA
:10023C00C0E0C0F0C083C082C0D075D000C000C088
:0D024C0001C002C003C004C005C006C00709
:10025900753C0030B2030203537538037539E82041
:10026900B21EE539453860187F017E0012000EE59F
:1002790039153970021538E539453870E2020353EA
:1002890030B22775380275392630B21EE53945383E
:1002990060187F017E0012000EE5391539700215CC
:1002A90038E539453870E2020353753A00753B0069
:1002B900741A253AF8C000E6C313D000F67538025F
:1002C90075395820B21DE539453860177F017E0020
:1002D90012000EE539153970021538E539453870BF
:1002E900E2806775380075391430B21DE539453833
:1002F90060177F0A7E0012000EE539153970021564
:1003090038E539453870E28041C3E539940CE53860
:1003190094005009741A253AF8E64480F6053BE53D
:100329003BC39408408A053AE53AC3940450030252
:1003390002B6E51DF4651C6011753A00741A253A78
:0A034900F87600053AE53AB404F234
:10035300D007D006D005D004D003D002D001D000FE
:0B036300D0D0D082D083D0F0D0E032A8
:0309FD00AF1C220A
:0608F20001560101550052
:1009AA0053890F438910758B33758DFEC28FD28E92
:0709BA00D2ABD2AFD2A122A3
:03001B00020927B0
:06092700C0E0C0F0C0D0EA
:10092D00758A33758CFE0555E55575F0288485F06F
:0E093D0055E555C395565004D2A18002C2A1C3
:07094B00D0D0D0F0D0E03263
:030A00008F5622EC
:10001E00EC4D6011E8497017ED33EC3304600DE4DC
:10002E00FCFFFEFD22E933E8330470F8020197125B
:10003E00016258046009E4CC24815006285009025C
:10004E0001A128400302019EC0E0EB4A7044B98032
:10005E0006D0E0FB02018DEF4E701CBD8008EBFF59
:10006E00EAFEE9FD80EBE98DF0A4FEE5F002010762
:10007E00E9CDF9EAFEEBFFEF89F0A4FCE5F0CE89BD
:10008E00F0A42EFFE435F0CD89F0A42DFEE435F07A
:10009E008067EF4E7005BD80D780C3EF8BF0A4ACA8
:1000AE00F0EE8BF0A42CFCE435F0F8EF8AF0A42CE3
:1000BE00E5F038FCE433CB8DF0A42CFCE5F03BF8F6
:1000CE00EE8AF0A42CFCE5F038F8E433CF89F0A4E6
:1000DE002CFCE5F038CF3400CE89F0A42FFFE5F0EC
:1000EE003EFEE433C98DF0A42EFEE5F039CD8AF044
:1000FE00A42FFFE5F03EFEE43DFD33D0E0FB5007BC
:10010E000BBB000F0201A1EC2CFCEF33FFEE33FE14
:06011E00ED33FD02017942
:1001240075F020800E75F010800575F0087D007E56
:10013400007F003392D530D50312022EEC334010E9
:10014400EF33FFEE33FEED33FDEC33FCD5F0ED225F
:0E015400E5F0247EA2D513CC92E7CDCEFF229B
:10016200E9D2E7C933E833F892D5EDD2E7CD33ECE3
:0701720033FC5002B2D5225C
:10017900EC30E7100FBF000C0EBE00080DBD0004E7
:100189000BEB6014A2D5EB13FCED92E7FD2274FF93
:10019900FCFDFEFF22E480F8A2D574FF13FC7D80EC
:0301A900E480EF00
:030000000205985E
:0C059800787FE4F6D8FD7581580205DF7D
:1001AC00BB010CE58229F582E5833AF583E0225008
:1001BC0006E92582F8E622BBFE06E92582F8E22252
:0D01CC00E58229F582E5833AF583E493226C
:1001D900BC000BBE0029EF8DF084FFADF022E4CC0A
:1001E900F875F008EF2FFFEE33FEEC33FCEE9DECD3
:1001F900984005FCEE9DFE0FD5F0E9E4CEFD22ED19
:10020900F8F5F0EE8420D21CFEADF075F008EF2F62
:10021900FFED33FD4007985006D5F0F222C398FD53
:050229000FD5F0EA22F0
:0E022E00C3E49FFFE49EFEE49DFDE49CFC22E1
:1005A400020442E493A3F8E493A34003F68001F227
:1005B40008DFF48029E493A3F85407240CC8C33358
:1005C400C4540F4420C8834004F456800146F6DF27
:1005D400E4800B01020408102040809008C1E47EEE
:1005E400019360BCA3FF543F30E509541FFEE4931C
:1005F400A360010ECF54C025E060A840B8E493A3E3
:10060400FAE493A3F8E493A3C8C582C8CAC583CA0D
:10061400F0A3C8C582C8CAC583CADFE9DEE780BEC5
:0108F80000FF
:00000001FF
