:10086800120AB91209C07542057B0A7DFF7FAE12D4
:1008780009A4120546EF24FE600C14600D146011E3
:10088800240370EE8004C2028002D2021200268085
:08089800E1C20212002680DA21
:05082E00C100015D00A6
:1009DC0043878075985053890F438920758BFA751E
:0B09EC008DFAC2ABD2ACD2AFD28E228B
:100930008B738A748975AB73AA74A9751202666089
:10094000160575E5757002057414F9120266F599BD
:080950003099FDC29980DF22FD
:090AB000C2007B007A00795E228D
:030023000207B31E
:0907B300C0E0C0D075D000C00008
:1007BC0020002C309829C298745E255DF8A699E526
:1007CC005EB42318E55DC394085011745E255DF882
:0F07DC00E6B42404D2008004055D8003755D003F
:0707EB00D000D0D0D0E032B5
:10098000D2A07F017E0012000ED2A17F017E001254
:10099000000EC2A07F017E0012000EC2A17F017E68
:0409A0000002000E43
:1009F700C2A07F017E0012000ED2A17F017E0012ED
:0B0A0700000ED2A07F017E0002000E56
:0207F2008F7600
:1007F400C2A1E4F577E576C4131313540124FF92E0
:10080400A0E57625E0F5767F017E0012000ED2A1E8
:100814007F017E0012000EC2A17F017E0012000E35
:090824000577E577C3940840CC88
:01082D0022A8
:10095800D2A0E4F578D2A17F017E0012000EE579DD
:1009680025E0F579A2A0E4334279C2A10578E578BB
:07097800C3940840E0AF79D1
:01097F002255
:100A2B00C2A1C2A07F017E0012000ED2A17F017E67
:070A3B000012000EC2A1220F
:100A4200C2A1D2A07F017E0012000ED2A17F017E40
:070A52000012000EC2A122F8
:100A6F00D2A0D2A17F017E0012000EA2A0E433FF1C
:020A7F00C2A112
:010A81002252
:10073200E4FBFAC2B6C2B5FDEFC41313135401248D
:10074200FF92B4EF25E0FFC2B6D2B60DBD08E9D2E2
:10075200B6C2B6E4FDEB25E0FBEA33FAD2B6C2B686
:10076200A2B7E43342030DBD0CEBD2B5AE02AF0328
:010772002264
:0806A2008F198B1A8A1B891CB9
:1006AA001209807FA01207F2120A6FAF191207F21D
:1006BA00120A6FE4F51EE51EC3951D501AAB1AAA5D
:1006CA001BA91C851E8275830012027FFF1207F286
:1006DA00120A6F051E80DF1209F77F057E00020AE3
:0106EA0012FD
:0405FC008F528D533A
:100600001209807FA01207F2120A6FAF521207F28E
:10061000120A6F1209807FA11207F2120A6FE4F525
:1006200054E554C39553501C12095874552554F879
:10063000A6070000E5531465546005120A2B00005C
:10064000055480DD120A421209F77B007A007955C1
:010650002287
:0208D7008F7A16
:1008D9001209807FA01207F2120A6FAF7A1207F28B
:1008E900120A6F1209807FA11207F2120A6F120908
:0B08F900588F7B120A421209F7AF7BF8
:0109040022D0
:0A0A1200EF1FAC0670011E4C600ED1
:0C0A1C00753F027540C7D540FDD53FFA7C
:030A280080E82241
:0B000E00EF1FAC0670011E4C70F622C4
:090AB900D288D2A8D2AFD2B22239
:0300030002002ECA
:10002E00C0E0C0F0C083C082C0D075D000C000C098
:0D003E0001C002C003C004C005C006C00719
:10004B0075250030B2030201457521037522E820A6
:10005B00B21EE522452160187F017E0012000EE5DD
:10006B0022152270021521E522452170E20201457D
:10007B0030B22775210275222630B21EE5224521AA
:10008B0060187F017E0012000EE52215227002150A
:10009B0021E522452170E2020145752300752400FC
:1000AB00746B2523F8C000E6C313D000F67521024C
:1000BB0075225820B21DE522452160177F017E0075
:1000CB0012000EE522152270021521E52245217042
:1000DB00E2806775210075221430B21DE52245219F
:1000EB0060177F0A7E0012000EE5221522700215A2
:1000FB0021E522452170E28041C3E522940CE521E4
:10010B0094005009746B2523F8E64480F60524E52A
:10011B0024C39408408A0523E523C39404500302A7
:10012B0000A8E56EF4656D6011752300746B2523D3
:0A013B00F876000523E523B404F272
:10014500D007D006D005D004D003D002D001D0000E
:0B015500D0D0D082D083D0F0D0E032B8
:030AC200AF6D22F3
:1008330011083F065B4F666D7D077F6F777C395EDE
:03084300797100C8
:100A8200EFC39410500774082FF8E6FF227F00226C
:060337008B3A8A3B893C71
:10033D00E4F53DED14F53EF53DE53DC39408507BE8
:10034D00E53DB40800504D90035BF8282873020377
:10035D007302037702037B02037F02038302038B85
:10036D0002039302039BD2A4800ED2A48012D2A4C6
:10037D008016D2A4801AC2A4D2A3D2A28016C2A47F
:10038D00D2A3C2A2800EC2A4C2A3D2A28006C2A4CE
:10039D00C2A3C2A2C3E53D953EFFE49400AB3AAAC9
:1003AD003BA93C8F82F58312027FF5807F647E002E
:0B03BD0012000EE4F580053D0203462F
:0103C8002212
:0F084600016900016800016700016A0001660096
:1009A40053890F4389108F8B8D8DC28FD28ED2AB1A
:0C09B400D2AF8F698D688B6785426A2284
:03001B00020905D2
:06090500C0E0C0F0C0D00C
:10090B0085698A85688C0566E5668567F08485F060
:0E091B0066E566D3956A5004D2A18002C2A19F
:07092900D0D0D0F0D0E03285
:030AC5008F6A2213
:05000600C2B5C2B622E4
:0605A5008C7C8D7DAB078C
:1005AB00D2B5E4FD7E007401A805088005C333CEE7
:1005BB0033CED8F9FFEBF582EF558224FF92B4D2FC
:1005CB00B6C2B60DBD08DDE4FD7E007401A80508BA
:1005DB008005C333CE33CED8F9FFE57C5EFEE57DD7
:1005EB005F4E24FF92B4D2B6C2B60DBD08DBC2B5C6
:0105FB0022DD
:02065100A907F7
:10065300E4FDD2B5FB7E007401A803088005C33313
:10066300CE33CED8F9FFE9F582EF558224FF92B459
:10067300D2B6EB64076002C2B60BBB08D8E4FBED4D
:10068300C313FDD2B6C2B630B403430580EB64078F
:0E0693006002D2B60BBB08E7C2B5C2B4AF0519
:0106A1002236
:0F0A9200EF75F080A47C005480FD7F8E0205A5D7
:0F0AA100EF75F080A47C005480FD7F840205A5D2
:1008A0007F85120651EFC4540FF532EF540FF53324
:1008B0007F83120651EFC4540FF535EF540FF53610
:1008C0007F81120651EFC4540FF538EF540FF539FC
:0608D0007B007A00793282
:0108D60022FF
:0A04DD008C6F8D708A718B72A90775
:1004E700E975F00A84C454F0FFE975F00A84EF2532
:1004F700F0FD7C007F841205A5AE6FAF707D0A12F8
:100507000301EFC454F0FBAE6FAF707C007D0A129D
:100517000301EB2DFD7C007F821205A5AE71AF7242
:100527007D0A120301EFC454F0FBAE71AF727C0079
:0F0537007D0A120301EB2DFD7C007F800205A5DC
:100A5900E4F5C9F5C8F5CC75CDDCF5CA75CBDCD2A2
:060A6900CAD2ADD2AF229B
:03002B0002045577
:10045500C0E0C0F0C083C082C0D075D000C000C06D
:0D04650001C002C003C004C005C006C007EE
:100472001208A08B278A288929752600E52664029E
:100482006005E526B40509742A2526F87640801A07
:10049200AB27AA28A92985268275830012027FFF2D
:1004A200120A82742A2526F8A6070526E526C39491
:1004B2000840C97B007A00792A7D01120337C2CF36
:1004C200D007D006D005D004D003D002D001D0008E
:0B04D200D0D0D082D083D0F0D0E03238
:1005460020B1147F147E00120A1230B1FD7F147E92
:1005560000120A127F012220B0147F147E00120AB4
:100566001230B0FD7F147E00120A127F022220B2E2
:10057600147F147E00120A1230B2FD7F147E001220
:100586000A127F032220B3147F147E00120A12304F
:0F059600B3FD7F147E00120A127F04227F002221
:05001E00C2B6C2B522CC
:0206EB00A9075D
:1006ED00E4FB7E007480A803088006CEA2E713CE3B
:1006FD0013D8F8FFEDF582EF558224FF92B4D2B6F0
:10070D00C2B60BBB08DCD2B5C2B5AF01A807748069
:10071D00088002C313D8FCF4F5807F017E00120A15
:04072D00127580FFC2
:0107310022A5
:100773000000000000000000003E48483E007E48A4
:100783004C32007E525252000040201E2040003C5A
:1007930042423C007C02027C00003C42423C007E20
:1007A30018244200007A7A000000000000000000D4
:100855000145A402460000C1810151000144000187
:0208650043004E
:1009C0005389F0438901E4F58A758CDCC28DD28CA1
:0C09D000D2A9D2AF755076F54D02001E82
:03000B000201608F
:10016000C0E0C0F0C083C082C0D075D000C000C065
:0D01700001C002C003C004C005C006C007E6
:10017D00758A00758CDC0543E54375F0648485F064
:10018D0043E54375F03284E5F07073120AC28F5166
:10019D00E551C4540FFF120A828F4EE551540FFFE3
:1001AD00120A828F4FAF451207328E468F477C035E
:1001BD007DE81202AC120A828F49AE46AF477C0031
:1001CD007D641202AC7C007D0A1202ACAF05120AEE
:1001DD00828F4AAE46AF477C007D0A1202AC7C008E
:1001ED007D0A1202ACAF05120A828F4BAE46AF47A5
:1001FD007C007D0A1202ACAF05120A828F4C3001D1
:10020D000D7B007A0079497D0112033780307548E6
:10021D0000E548254490077393FDAF481206EB05A2
:10022D0048E548C3940840E9E54375F00F84E5F0CF
:0E023D00700C0544E544D3943840037544002A
:10024B00D007D006D005D004D003D002D001D00007
:0B025B00D0D0D082D083D0F0D0E032B1
:030AC8008F452235
:05002600A2029201227C
:030000000203C92F
:0C03C900787FE4F6D8FD75817D020410F9
:10026600BB010689828A83E0225002E722BBFE0296
:09027600E32289828A83E49322C9
:10027F00BB010CE58229F582E5833AF583E0225034
:10028F0006E92582F8E622BBFE06E92582F8E2227E
:0D029F00E58229F582E5833AF583E4932298
:1002AC00BC000BBE0029EF8DF084FFADF022E4CC36
:1002BC00F875F008EF2FFFEE33FEEC33FCEE9DECFF
:1002CC00984005FCEE9DFE0FD5F0E9E4CEFD22ED45
:1002DC00F8F5F0EE8420D21CFEADF075F008EF2F8F
:1002EC00FFED33FD4007985006D5F0F222C398FD80
:0502FC000FD5F0EA221D
:10030100C2D5EC30E709B2D5E4C39DFDE49CFCEE17
:1003110030E715B2D5E4C39FFFE49EFE1202ACC3E1
:10032100E49DFDE49CFC80031202AC30D507C3E4DC
:060331009FFFE49EFE2286
:1003D500020868E493A3F8E493A34003F68001F2CE
:1003E50008DFF48029E493A3F85407240CC8C33329
:1003F500C4540F4420C8834004F456800146F6DFF8
:10040500E4800B010204081020408090082EE47E51
:10041500019360BCA3FF543F30E509541FFEE493EC
:10042500A360010ECF54C025E060A840B8E493A3B3
:10043500FAE493A3F8E493A3C8C582C8CAC583CADE
:10044500F0A3C8C582C8CAC583CADFE9DEE780BE96
:010867000090
:00000001FF
